:020000040800F2
:100000000000012009000008DFF81400016841F435
:100010007001016072B60348804703480047000042
:1000200088ED00E08D3900082D000008DFF80CD0C5
:1000300000F0F0FC00480047555C0008000001207B
:1000400072B634483449026841EA0201016033481B
:100050004FF00101016032484168016001688A88FF
:100060004FF0100342EA03028A80D1F800C00CF17D
:10007000240C0CF1040CBCE8FF008CF309884FF051
:10008000020C8CF31488AE4662B63047EFF3108052
:1000900072B67047EFF3108062B6704780F3108835
:1000A000704720484FF0805101607047EFF3108C8B
:1000B00072B61D4A126822B12DE900509047BDE882
:1000C0000050EFF309801EF0100F08BF20ED108BD9
:1000D00040F804ED20E9F01F114D4FF010082E6894
:1000E0003060B78827EA0807B78068682860878883
:1000F00047EA08078780016800F018B851F804EB58
:100100001EF0100F08BF00F016B881F309888CF3B9
:100110001088704720ED00E00000FFFF6804002019
:100120006C04002004ED00E05004002030C9B1E868
:10013000C01FFFF7E3BFB1EC088BB1EC08CBFFF7B2
:10014000E4BF2DE9F05F0546002092469B468846B5
:100150000646814640241BE0284641464746224643
:1001600000F06BFA53465A46C01A914110D311461B
:100170001846224600F052FA2D1A67EB01084F4646
:1001800022460120002100F049FA17EB00094E41F8
:10019000201EA4F10104DFDC484631462A464346CE
:1001A00000F000B830BCBDE8C09FA0F16101192982
:1001B00000D82038704740EA01039B0703D009E0CC
:1001C00008C9121F08C0042AFAD203E011F8013B43
:1001D00000F8013B521EF9D27047D2B201E000F89C
:1001E000012B491EFBD270470022F6E710B51346DB
:1001F0000A4604461946FFF7F0FF204610BD30B509
:1002000005462A460B4612F8010B13F8014B08B1BC
:10021000A042F8D01CB1002802D06D1CF1E728469E
:1002200030BD421C10F8011B0029FBD1801A704719
:1002300010B5002200E0521C835C8C5CA34201D10B
:10024000002BF8D1D8B2E1B2401A10BD0FB400B5FE
:100250008DB010A909900B9000914FF0FF300A90DB
:1002600000200C9005480690054807906A4609A8AA
:100270000F9900F007FA0DB05DF814FBA106000815
:10028000BF0600082DE9FF5F1D464FF0FF3BD5E993
:10029000014691465F464FF00008A9697F1C01980E
:1002A0008847296A824688470028F6D1BAF1FF3F7D
:1002B0000CD024F4C064002E19DD600614D5BAF108
:1002C0002B0F09D0BAF12D0F0ED103E0584604B020
:1002D00000F07EB844F48064A9697F1C01988847C7
:1002E000761E8246002E02DDBAF1300F03D0B9F13E
:1002F000000F26D032E0A969761E44F400747F1CFA
:10030000019888478246002E05DDBAF1780F06D0A5
:10031000BAF1580F03D0B9F1000F10D01EE0B9F1B7
:10032000000F02D0B9F1100F18D1A969761E24F47C
:1003300000747F1C019888478246102002E0082044
:1003400000E00A20814609E008FB0908A969761E39
:1003500044F400747F1C019888478246002E05DD16
:100360004946504600F079F90028EDDAE96901982C
:100370008847A00502D46FF00100A8E7E00725D167
:10038000600613D5600502D5C8F1000000E04046C4
:1003900029680A1D2A600968220501D5087015E040
:1003A000220701D5088011E008600FE02868011DD0
:1003B00029600068210502D580F8008006E0210749
:1003C00002D5A0F8008001E0C0F8008038467EE742
:1003D00030BCBDE8C09F2DE9FF5FD2E901A74FF017
:1003E0000008916999461446DDF838B046460198F0
:1003F0008847054659EA0B0005D009E0A169761C3B
:10040000019888470546216A284688470028F5D183
:10041000681C03D05FEACA7005D015E04FF0FF30CA
:1004200004B000F048B82068011D2160D0F80080B9
:100430000AE05FEACA7001D108F8015BA169761C85
:100440007F1E019888470546002F1ADD681C18D0CA
:10045000B9F1000F0DD0E81705EBD060421120F084
:100460001F0059F822102A1A012090400142E0D1C1
:1004700007E0BBF1000FDCD1216A2846884700283D
:10048000D7D0E16901988847BBF1000F07D1002E52
:1004900005DD5FEACA7002D1002188F80010A0686B
:1004A000B84203DDBBF1000F03D017B16FF00100BC
:1004B000B6E73046B4E730BCBDE8C09F2DE9F04D4B
:1004C00081EA030404F0004B21F0004514464FF08C
:1004D000000A23F0004150EA050220D054EA01024C
:1004E0001DD0C5F30A570246C5F31303C1F3130029
:1004F000C1F30A5640F4801543F48013A7EB0608B5
:10050000101BD64608F2FD3873EB050002D308F144
:10051000010801E092185B41B8F1000F03DA0020F6
:100520000146BDE8F08D00204FF480110646844658
:100530000EE0171B73EB050705D3121B63EB0503D6
:1005400006434CEA010C49084FEA300092185B411F
:1005500050EA0107EDD152EA030012D082EA04000A
:1005600083EA0501084305D0101BAB4106D20122E6
:10057000002306E000224FF0004302E06FF001028A
:1005800053101AEB06004CEB085110EB0A0041EB3C
:100590000B01BDE8F04D00F0A3B8C1F30A52C1F35E
:1005A000130140F2FF3341F480119A4202DA002035
:1005B0000146704740F233439A42A2F2334202DCD2
:1005C000524200F03AB800F029B800F0004230F092
:1005D00000400AD0C10D01F56071C0F3160042EA77
:1005E0000151C2084007114370470020014670477F
:1005F00030B50B46014600202022012409E021FAF3
:1006000002F59D4205D303FA02F5491B04FA02F5EF
:100610002844151EA2F10102F1DC30BD202A04DBC2
:10062000203A00FA02F1002070479140C2F1200305
:1006300020FA03F3194390407047202A04DB203A44
:1006400021FA02F00021704721FA02F3D040C2F1F2
:10065000200291400843194670473A2800D23038AA
:1006600020F02002412A01D3A2F13700884201D3B1
:100670004FF0FF30704700000268114413780160AA
:1006800018467047D1600449516104491162002144
:100690001161114600F0E8B9790600085D0A00080A
:1006A000426842B1016811F8013B23B1521EC0E912
:1006B0000012184670470121C160881E70474268C9
:1006C0005AB1C368016843B983688B4205D0491E9B
:1006D000521CC0E90012002070474FF0FF307047F5
:1006E00010B5141E73F1000408DA401C41F100013A
:1006F00092185B411A4301D120F0010010BD2DE991
:10070000F04D92469B4611B1B1FA81F202E0B0FA87
:1007100080F220329046FFF781FF04460F4640EA00
:100720000A0041EA0B0153465A46084313D01146CA
:1007300053EA010019D0C8F140025046FFF77DFF8F
:1007400005460E46504659464246FFF767FF0843A6
:1007500005D0012004E020463946BDE8F08D002098
:10076000054346EAE0762C4337430A986305E40ADA
:10077000A0EB08000022FD0A44EA47540A3002D5E3
:1007800000200146E9E7010510196941DDE9084546
:1007900000196941BDE8F04DA2E72DE9FE4F804602
:1007A00081EA0300C00F0C46009021F0004123F0C5
:1007B0000045B8EB0200A94105D2404621469046CB
:1007C0001C460B46024623F00040104347D0270D3D
:1007D000C7F30A00C3F30A510290401A019040285F
:1007E0006BDAC3F3130040F4801B0098924620B1EB
:1007F0000023D2EB030A63EB0B0B01985946C0F1BF
:1008000040025046FFF70AFF06460D46504659463D
:10081000019A00F011F910EB08006141002487EA09
:10082000115284EAE7731A4340D0009A62B3019AE6
:10083000012A4FEA075215DC001B61EB02014FF061
:10084000004202EA0752CDE90042001C41F5801146
:1008500032462B46FFF753FF03B000F045B8404641
:100860002146F9E7001B61EB0201001C41F58013F2
:1008700000185B412018A2F5001747EB030140EA7E
:10088000D570B6196D4111E06D084FEA360645EA9C
:10089000C0754FEA0752001B61EB0201001C41F5D5
:1008A000801149084FEA30000019514132462B4669
:1008B00003B000F01CB8FFF713BF009801224000FE
:1008C0000023D0EB020263EBE073009821464FEA6D
:1008D000E074B8EB000061EB0401E9E783F000434A
:1008E0005BE781F0004158E730BCBDE8C08F30BC09
:1008F000BDE8C04FFFF7DFBF2DE9FE4F81EA0304DB
:1009000004F0004421F0004100944FF0000B23F06C
:10091000004350EA01045ED052EA03045BD0C3F303
:100920000A54C1F30A552C44A4F2F3340194A0FBF9
:100930000254C1F3130141F48011C3F3130343F4D0
:10094000801301FB024400FB034E840A970A44EA29
:10095000815447EA8357A4FB076802958D0A05FB7B
:1009600007854FEA932C04FB0C542705029D4FEAA0
:10097000065847EA1637B5EB08056EEB070C870EED
:10098000920E47EA811742EA8312A7FB0201B6EBF7
:100990000B0164EB00042B0D43EA0C335E1844EBAF
:1009A0001C50DA465146E7FB0201C5F313044FEA37
:1009B0000B3343EA14534FEA0432019C43EA060323
:1009C000A4F10C040294009CCDE900B4FFF797FE5B
:1009D00003B000F003B800200146F9E730BCBDE8E1
:1009E000C08F000030B5041E71F1000404DB4FF02D
:1009F0000044404264EB0101141E73F1000405DB66
:100A00001C464FF00043524263EB0403994208BF77
:100A1000904230BD064C074D06E0E06840F001030F
:100A200094E8070098471034AC42F6D3FFF702FB76
:100A3000A8850008D8850008202A06DBCB17203AB5
:100A400041FA02F043EAE07306E041FA02F3D040D3
:100A5000C2F120029140084319467047C0B24FF4DA
:100A6000F05100F09BB900002DE9F34F8BB04FF02F
:100A7000000801F10C000C464FF0010B46460DF149
:100A8000080A01906269012101989047051E2DD046
:100A9000252D2CD0216A8847C0B1626901210198B7
:100AA0009047216A88470028F7D1411E6269019862
:100AB000904700E0761CA1690B988847216A884717
:100AC0000028F7D1E1690B988847DBE7A1690B980B
:100AD00088470746A84201D1761CD3E7E1690B9805
:100AE00088477F1C02D1B8F1000F6FD046E1002784
:100AF00062693D463946019890472A2804D16269C7
:100B00000121019890470125DFF884926269012153
:100B100001989047A0F130010A290AD24F45E5DC3F
:100B200007EB870100EB4107303FDFD445F01005AC
:100B3000ECE7E90601D46FF000476C280AD04C2896
:100B400014D0682815D06A280DD074281CD07A28B3
:100B50001AD01DE062690121019890476C2802D0EB
:100B600045F0040514E045F002050DE045F02005D0
:100B70000AE06269012101989047682802D045F097
:100B8000080505E045F40065626901210198904778
:100B9000C4E9015765283DD019DC58287AD00CDC0F
:100BA000452837D004DC252826D0412831D131E032
:100BB00046282FD047282CD12CE05B2877D06128FD
:100BC00028D063287CD0642823D15AE0D0E06F2855
:100BD00048D008DC66281DD067281BD0692821D0A2
:100BE0006E2816D127E0702845D0732868D0752864
:100BF00047D078280DD14DE0A1690B98884705466C
:100C000025283FF469AFE1690B9888476D1C3FF4D4
:100C10006AAFB3E023466A466FF001000B99AFF369
:100C200000809EE045F040006060A80723464FF03A
:100C3000000236D43EE0E8077FF447AF2068011D8C
:100C400021600068290501D506701BE7290701D539
:100C5000068017E7A90703D5F117C0E9006111E77E
:100C600006600FE745F040006060A80723464FF09C
:100C7000080216D41EE040F60E0125EA010060606D
:100C800016E045F040006060A80723464FF00A02D6
:100C900007D40FE045F040006060A80708D5234660
:100CA00010226FF001000B99AFF3008059E007E0CC
:100CB000234610226FF001000B99FFF7E3FA50E092
:100CC0004FF000094F464B46632802D05B2806D000
:100CD00040E0E80601D40120A06001273AE0626903
:100CE0000121019890475E2805D14FF00109626902
:100CF000494601989047216939B900210A4653466F
:100D000043F82120491C0829FADBB0B3216969B9ED
:100D1000C11700EBD16253110AEB830122F01F02CD
:100D2000821A01200B68904003430B606269012125
:100D3000019890475D28E8D1B9F1000F09D0002053
:100D4000514651F82020D24341F82020401C082869
:100D5000F7DB02AB224600976FF001000B99FFF71B
:100D60003AFB00280CDA401C08D1BBF1000F05D07B
:100D70004FF0FF300DB000F00DB8FFE74046F9E747
:100D8000E90701D108F1010806444FF0000B79E6AC
:100D9000CCCCCC0C30BCBDE8C08F00007F2801D982
:100DA000002208E0064A02EB5002C007127800D188
:100DB000120902F00F020120904008407047000025
:100DC000BA84000870B58C1810F8015B15F00703A1
:100DD00001D110F8013B2A1106D110F8012B03E0D4
:100DE00010F8016B01F8016B5B1EF9D12B0705D4DC
:100DF0000023521E0DD401F8013BFAE710F8013B25
:100E0000CB1A921C03E013F8015B01F8015B521E40
:100E1000F9D5A142D8D3002070BD012000F072B8EE
:100E2000022000F06FB8042000F06CB8082000F039
:100E300069B810B590F825100024022903D00421C8
:100E4000C16301241AE001680A6822F00E020A60F8
:100E500001680A6822F001020A6090F84410036CED
:100E600001F01C02012101FA02F25A6080F82510FB
:100E7000002180F82410816B01B18847204610BD05
:100E800070B5044600F016F90546601C00D0641CDD
:100E900000F010F9401BA042FAD370BD012809D020
:100EA000022809D0042809D0082809D105A000BFCC
:100EB00003F056B807A0FBE70AA0F9E70DA0F7E793
:100EC00070470000546869732069732046310D0A29
:100ED00000000000546869732069732046340D0ACD
:100EE00000000000546869732069732046330D0ABE
:100EF00000000000546869732069732046320D0AAF
:100F000000000000044910B50A68024202D00860DF
:100F1000FFF7C4FF10BD0000140401402DE9F84F95
:100F2000DFF864B100234FF0010C4FF0030A4FF0DB
:100F30000F090BF1040EA0E00CFA03F6324072D058
:100F40004C68022C01D0122C0ED1DC0800EB840876
:100F5000D8F820405D07EF0E09FA07F5AC430D699C
:100F6000BD402543C8F8205007685D0091F8048013
:100F70000AFA05F408F00308A74308FA05F848EA56
:100F80000708C0F800804F68012F05D0022F03D05A
:100F9000112F01D0122F11D18768D1F80C80A743EF
:100FA00008FA05F848EA0708C0F808804768B74318
:100FB0000E79C6F300169E403E434660C668A643BF
:100FC0008C68AC403443C4604C68E40054D52F4C6A
:100FD000256E45F001052566246E23F0030504F017
:100FE000010400942A4C2E19B4689D072F0F09FAAA
:100FF00007F5AC43B0F1904F04D0264DA84203D181
:10100000012512E0002510E0234DA84201D1022560
:101010000BE0224DA84201D1032506E0204DA84255
:1010200002D1042501E027E00725BD402543B56036
:10103000DBF800405D464E689443F60300D5144348
:101040002C60DEF8004075464E689443B60300D528
:1010500014432C600C4D08352C684E689443F602FE
:1010600000D514432C60084D0C352C684E68944311
:10107000B60200D514432C605B1C0A6832FA03F4F4
:101080007FF45AAF00F00EB8000401400010024097
:10109000000001400004004800080048000C00481F
:1010A0000010004818BCBDE8E08F0AB181617047AC
:1010B0008162704710B501F0EDFF10BD10B503203F
:1010C00000F088F8002000F005F800F017F8002084
:1010D00010BD000010B5044607484FF47A7100684F
:1010E000B0FBF1F000F086FD00222146501E00F01A
:1010F00051F8002010BD0000240400201E4808B54F
:10110000016E41F001010166016E01F001010091E3
:10111000816D41F080518165806D00F080500090BC
:10112000032000F057F8002211466FF00B0000F08A
:1011300031F8002211466FF00A0000F02BF800226F
:1011400011466FF0090000F025F800221146501FEB
:1011500000F020F800221146101F00F01BF80022BA
:101160001146901E00F016F80022BDE80840114616
:10117000501E00F00FB800000010024000F01F02E7
:10118000012191404009800000F1E020C0F80011E9
:1011900070470000F0B40E4B1B680C46C3F30223EB
:1011A000C3F10705042D00D90425191D072901D213
:1011B000002300E0DB1E012606FA05F1491E21404E
:1011C00099409E40761E16403143F0BC02F07EB935
:1011D0000CED00E0064900F0070208684FF6FF0337
:1011E000184040EA0220034A10430860704700009C
:1011F0000CED00E00000FA051549B0F5007F086825
:10120000C0F3412009D0022805D0086820F4C0604E
:1012100040F480600860002070470128FBD0086817
:1012200020F4C06040F4007008600A480A4A006870
:10123000B0FBF2F03222504300E0401E10B14A6988
:101240005205FAD448694005E5D5032070470000EF
:10125000007000402404002040420F000248006853
:1012600000F4C06070470000007000402DE9F84FA6
:10127000044600270088A84D3E46000515D5606C41
:1012800060B1B0F5000F04D0B0F5400F2BD00127AE
:101290000AE0E86840F48030E86024E00021201D86
:1012A00002F052FA07001ED03E46206880033AD56D
:1012B000A86D4FF00008C00009D4A86D40F0805020
:1012C000A865A86D4FF0010800F080500090DFF88D
:1012D0004CA2DAF8001041F48071CAF80010FFF750
:1012E000E9FE814610E0D5F88800616C20F44000EA
:1012F0000843C5F88800D8E7FFF7DCFEA0EB09003B
:10130000022801D9032705E0DAF80000C005F3D56B
:10131000002F7DD04FEA0706B8F1000F03D0A86D6B
:1013200020F08050A8652078C00707D0D5F8880045
:10133000216A20F003000843C5F888002078800760
:1013400007D5D5F88800616A20F00C000843C5F87D
:1013500088002078400707D5D5F88800A16A20F0DA
:1013600030000843C5F888002078800607D5D5F8F6
:101370008800E16A20F440600843C5F888002088AE
:10138000800507D5D5F88800E16B20F4402008439C
:10139000C5F888002088400507D5D5F88800216C5D
:1013A00020F440100843C5F888002078400607D58F
:1013B000D5F88800216B20F440500843C5F8880018
:1013C0002078000607D5D5F88800616B20F44040EE
:1013D0000843C5F888002088C00507D5D5F88800DF
:1013E000A16B20F440300843C5F8880020684FF016
:1013F000006700034FF0806850D5D5F88800A16CD5
:1014000020F040600843C5F88800A06CB84200E0B6
:1014100005E03BD1E86840F48010E8603EE0D5F894
:10142000900010F4407014D0A16D814211D0D5F815
:101430009000D5F8901020F4407041F48031C5F848
:101440009010D5F8901021F48031C5F89010C5F8AF
:101450009000C00711D0FFF72DFE074641F28839F2
:1014600007E000BFFFF726FEC11B494501D903264F
:1014700052E7D5F890008007F4D5D5F89000A16D1B
:1014800020F440700843C5F8900045E7404505D179
:101490000121201D02F058F900B1064620684003E2
:1014A00017D5D5F88800E16C20F040600843C5F8F6
:1014B0008800E06CB84204D1E86840F48010E8602D
:1014C00007E0404505D10121201D02F03DF900B1A2
:1014D00006462088400411D5D5F88800216D20F0FB
:1014E00040500843C5F88800206DB0F1805F05D1F9
:1014F0000221201D02F028F900B1064620880004D0
:1015000006D555F8880F616D20F0804008432860AB
:10151000304600F005B800000010024000700040A6
:1015200018BCBDE8E08F00002DE9F0470F4605002C
:1015300058D03E4E306800F00700B84209D23068FB
:1015400020F0070038433060306800F00700B842F0
:1015500048D12878364CC0072CD06868032811D0B1
:10156000022812D0216898B1490500293ADAA16809
:1015700021F003010143A160FFF79CFD804641F289
:10158000883910E021688901EFE721688903ECE7D9
:101590008907EAE7FFF78EFDA0EB0801494502D96C
:1015A0000320BDE8F087A068696800F00C00B0EB8C
:1015B000810FEFD12878800705D5A068A96820F0B1
:1015C000F0000843A060306800F00700B8420BD973
:1015D000306820F0070038433060306800F00700C2
:1015E000B84201D00120DCE72878400705D5A06883
:1015F000E96820F4E0600843A0602878000706D579
:10160000A068296920F4605040EAC100A06000F0A1
:1016100035F8A168074AC1F30311515CC840064977
:1016200008600020FFF756FD0020BAE700200240C6
:1016300000100240B47A0008240400200448054940
:1016400000688968044AC1F30221515CC8407047B0
:101650002404002000100240F47A000804480549E0
:1016600000688968044AC1F3C221515CC8407047D0
:101670002404002000100240F47A000830B52D49FF
:10168000002318468A682C4C12F00C0F4FEA6405B0
:1016900014D08A68C2F38102032A04D1CA6802F016
:1016A0000302012A0AD08A68C2F38102012A19D0F2
:1016B0008A68C2F38102022A16D016E00A6812076D
:1016C00004D4D1F89420C2F3032202E00A68C2F3E2
:1016D00003121A4B53F822308A6812F00C0F04D10F
:1016E000184602E0204600E028468A68C2F38102DC
:1016F000032A1DD1C868CA6800F00300C2F30212B1
:10170000521C022804D0032805D0B3FBF2F004E0F9
:10171000B4FBF2F001E0B5FBF2F0CA68C968C2F3AD
:1017200006225043C1F34161491C4900B0FBF1F06E
:1017300030BD0000001002400024F400C47A00080C
:101740002DE9F84304007DD02078FE4DC0065DD51C
:10175000A86810F00C0F0AD0A0690028286873D080
:1017600040F001002860FFF7A5FC064655E0286818
:10177000800702D5A0690028E5D0216A2868000703
:1017800003D5286800F0F00004E0D5F89400F022BA
:1017900002EA1010814216D9084602F06BF80028C0
:1017A00050D1286840F0080028602868216A20F09D
:1017B000F000084328606868E16920F47F4040EA4F
:1017C0000120686015E0286840F00800286028685B
:1017D000216A20F0F000084328606868E16920F47D
:1017E0007F4040EA01206860206A02F043F8002848
:1017F000D6D1FFF743FFA968D34AC1F30311515C67
:10180000C840D24908600020FFF764FC2CE000BF0C
:10181000FFF750FC801B02287ED828688007F7D588
:10182000286840F0080028602868216A20F0F0004D
:10183000084328606868E16920F47F4040EA01209D
:10184000686011E0B2E0FFE720F001002860FFF7D8
:1018500031FC064605E000BFFFF72CFC801B022888
:10186000DAD828688007F7D42078C00748D0A8685D
:10187000C0F3810002281DD0A868C0F381000328AE
:1018800003D1E868C043800714D06068B0F5803F9A
:1018900017D0B0F5A02F286817D020F4803028602A
:1018A000286820F4802028606068E0B1FFF702FC1F
:1018B000064614E02868800322D56068002875D0A9
:1018C0001EE0286840F48030EDE740F48020286076
:1018D000F7E700BFFFF7EEFB801B64289CD8286861
:1018E0008003F7D50CE0FFF7E5FB064605E000BFF7
:1018F000FFF7E0FB801B64288ED828688003F7D4AC
:101900002078800742D5A868C0F38100012816D04E
:10191000A868C0F3810000E0CEE0032804D1E868A5
:1019200000F0030002280AD0E068002828681DD0D3
:1019300040F480702860FFF7BDFB06460BE0286886
:1019400040050BD5E0680028B9D007E0FFF7B2FBEF
:10195000801B022884D828684005F7D56868217C58
:1019600020F0F85040EA016068600FE020F48070D9
:101970002860FFF79FFB064605E000BFFFF79AFBD4
:10198000801B0228AAD828684005F7D420780007D1
:1019900029D560690028D5F8940013D040F00100E3
:1019A000C5F89400FFF786FB064606E01DE100BF80
:1019B000FFF780FB801B02287ED8D5F894008007B3
:1019C000F6D510E020F00100C5F89400FFF772FB97
:1019D000064604E0FFF76EFB801B02286CD8D5F8A2
:1019E00094008007F6D42078400761D5A86D0026C2
:1019F000C00008D4A86D40F08050A865A86D0126ED
:101A000000F08050009052480168C90511D4016867
:101A1000804641F480710160FFF74CFB074604E00B
:101A2000FFF748FBC01B022846D8D8F80000C005C5
:101A3000F6D5A068012815D00528D5F8900016D055
:101A400020F00100C5F89000D5F8900020F00400C7
:101A5000C5F89000A06841F28838B8B1FFF72AFBBA
:101A600007460EE0D5F8900040F00100F0E740F0A6
:101A70000400C5F89000F5E7FFF71CFBC11B4145CA
:101A80001AD8D5F890008007F6D50CE0FFF712FBC6
:101A9000074604E0FFF70EFBC11B41450CD8D5F803
:101AA00090008007F6D41EB1A86D20F08050A86584
:101AB0002078800629D500E089E0606A0028D5F802
:101AC000980011D040F00100C5F89800FFF7F2FA35
:101AD000064604E0FFF7EEFA801B02287DD8D5F811
:101AE00098008007F6D510E020F00100C5F89800B6
:101AF000FFF7E0FA064604E0FFF7DCFA801B022855
:101B00006BD8D5F898008007F6D4A06AC8B1A96848
:101B1000C1F38101032968D00228286820F0807071
:101B2000286019D02868000103D4E86820F0030079
:101B3000E860E86807490840E860FFF7BBFA044638
:101B40004EE050E000100240B47A00082404002067
:101B500000700040FFFFEEFEFFF7ACFA064604E01F
:101B6000FFF7A8FA801B022837D828688001F7D42D
:101B7000206B54F82C1F000110380843218A1C4A9E
:101B8000490802EB4151A26841EA02210843217D44
:101B90004FF07E42490802EB41610843217B40EA55
:101BA000C160E860286840F080702860E86840F014
:101BB0008070E860FFF77EFA044604E0FFF77AFAE7
:101BC000001B022809D828688001F7D50BE004E043
:101BD000FFF770FA001B022802D90320BDE8F88342
:101BE00028688001F4D40020F8E70120F6E700001F
:101BF0000000E0FF10B5401EB0F1807F01D301204E
:101C000010BD4FF0E02460610F21601701F05EFC11
:101C10000020A06107202061002010BD70477047A0
:101C20002DE9F04102680446D0691168936810F00C
:101C30000F0F4FF000055BD003F0010601F4907721
:101C4000374369D0C70707D0CF0505D501271762ED
:101C5000626F42F001026267820708D5DA0706D098
:101C6000276802223A62626F42F00402626742070A
:101C700008D5DA0706D0236804221A62626F42F0A0
:101C80000202626702070AD501F02002324306D041
:101C9000236808221A62626F42F008026267626F6C
:101CA000002A32D0800605D5880603D5216E09B1F9
:101CB00020468847606F000703D42068806840068C
:101CC00025D5204601F020FF20688168490619D5F6
:101CD000816821F040018160E06E98B12049816304
:101CE000E06EFFF7A6F800280FD0E06E816B06E0EB
:101CF000860611D58E060FD5216E1EE02046BDE862
:101D0000F04108472046FFF78AFFBDE8F0812046F2
:101D1000FFF785FF6567F8E7C60209D55B0207D5BF
:101D20004FF4801010622046BDE8F041FFF776BF07
:101D3000030605D50B0603D5616E0029DED1E4E765
:101D40004006E2D54806E0D51168204621F0400162
:101D50001160202184F87110656600F052F9D4E713
:101D6000F53A000810B5040003D094F8710010B1E2
:101D700007E0012010BD002084F87000204600F02C
:101D800027F8242084F871002068016821F00101FF
:101D90000160204601F024FF0128EBD0606A10B1F9
:101DA000204601F015FE2068416821F49041416011
:101DB0002068816821F02A0181602068016841F073
:101DC000010101602046BDE8104001F065BE000041
:101DD000F0B52F4F066800222E4902230324072561
:101DE00087B04FF09040BE4217D10E6E46F4804649
:101DF0000E66096E02AE01F4804105916102CDE9E3
:101E0000001386E834006946FFF788F8002211467F
:101E10002520FFF7BFF9252019E01F4FBE421AD138
:101E20008E6D46F400368E65896D02AE01F4003188
:101E300005910C21CDE9001386E834006946FFF7CF
:101E40006DF8002211462620FFF7A4F92620FFF79F
:101E500095F907B0F0BD11488642FAD1886D40F47B
:101E600080208865886D02AE00F4802005904FF4D4
:101E70004060CDE9000386E8340069460848FFF772
:101E80004DF8002211462720FFF784F92720DEE7CE
:101E9000003801400010024000440040004800406B
:101EA0000008004830B590F87230202B4AD1B1B10B
:101EB000AAB190F87030012B44D0012380F8703023
:101EC0004165A0F85820A0F85A20002202661D03A0
:101ED0008168FF23A94207D1016911B10CE00120FB
:101EE00030BD40F2FF110DE07F2419B1B1F1805FE8
:101EF00005D009E0016901BBA0F85C3004E001698C
:101F0000D9B13F21A0F85C104267222180F87210FD
:101F100001688B6843F001038B608168A94201D19D
:101F2000016969B10849016680F87020006801689C
:101F300041F490710160002030BDA0F85C40E3E7FF
:101F40000249F0E7022030BD853B0008293B00082C
:101F500070472DE9F843044690F871001F46164675
:101F60000D4620284BD1C5B1BEB194F870000128B0
:101F700045D0012084F870004FF00008C4F8748048
:101F8000212084F87100FFF795F8A4F8506081468D
:101F9000A4F852604FF4805615E00120BDE8F883A4
:101FA0008021204601F046FFD8B9A068B04201D197
:101FB0002069C0B115F8010B21680885B4F85200FA
:101FC000401EA4F85200B4F852004B464FF00002F5
:101FD00000970028E4D14FF04001204601F02AFF8D
:101FE00030B10320DAE735F8020BC0F30800E3E76D
:101FF000202084F8710084F870800020CEE7022051
:10200000CCE7704710B5FFF759F801F071FC0648AE
:10201000006803F08FFD01F043F801F0DBF8BDE844
:10202000104002A001F09CBF2404002057656C639F
:102030006F6D6520746F20496F542D436C75622C51
:102040002054686973206973204556422D4D312014
:10205000426F6172642E0D0A000000002DE9F0410C
:1020600017468846064600241DE0305DFEF79DF8C1
:10207000C5B230194078FEF798F8C0B2392D01D9B1
:10208000373D00E0303DE9B2392801D9373800E06A
:102090003038C0B204EBD47240EA011008EB6201A0
:1020A000A41C087024B2BC42DFDBBDE8F081000054
:1020B00070B501220B4D940221462846FEF7F5FF2C
:1020C0000122D60231462846FEF7EFFF00223146B4
:1020D0002846FEF7EAFF21462846BDE87040002268
:1020E000FEF7E3BF0004004870B50A4C01229102DC
:1020F0002046FEF7DAFF4FF400650022294620460D
:10210000FEF7D3FF29462046BDE870400122FEF7C6
:10211000CCBF00000004004870B50122064D9402B7
:1021200021462846FEF7C1FF21462846BDE87040FB
:102130000022FEF7BABF0000000400484218491E02
:10214000521E824202D922EA01007047884370473A
:1021500038B5054D0C4604992D6815B100912146FE
:10216000A847002038BD0000EC0400202DE9F04114
:102170001E000C46054604D0F02D05D31E48BDE8D0
:10218000F0811D48401CFAE71C481D4900EB8507FB
:10219000386C884202D01848001DF0E7082C02D3A2
:1021A0001548401DEBE7FDF771FF014615483864FF
:1021B0001548012200EB8500066468B200F01F0399
:1021C0009A4043099B0003F1E023C3F80021220752
:1021D000120E002806DA00F00F0000F1E02080F86F
:1021E000142D03E000F1E02080F800240846FDF7FC
:1021F00055FF0020C3E70000000900020000002096
:102200002D670008E1670008640A002010B5214925
:1022100010200860204821490068086004F0FEFA98
:10222000040007D01EA001F09BFE21461EA001F075
:1022300097FE27E004F094FA05F06EF8040004D04D
:1022400017A001F08DFE1FA01AE005F0CFF804F0F2
:102250005FFD002817D104F0EDFA002813D104F037
:10226000EBFB040004D00EA001F07AFE1AA007E0F8
:1022700004F05EFE040007D009A001F071FE1BA06F
:1022800001F06EFE204610BD05F0ACFABDE810402E
:1022900004F086BA5C040020A0850008F004002049
:1022A0005B4552525D2000006F734D656D5379732D
:1022B00074656D496E6974206572726F7220256451
:1022C0000A0000006F735461736B496E6974206576
:1022D00072726F720A0000006F73517565756549FF
:1022E0006E6974206572726F720A00006F735377A3
:1022F000546D72496E6974206572726F720A0000C3
:102300004268C1E90002426811604160704742685A
:10231000C1E9000242681160416070474268C1E94A
:10232000000242681160416070474268C1E90002E2
:102330004268116041607047D0E900121160D0E935
:1023400000124A6000214160016070470068FFF799
:10235000D7BF70B505000C464FF000000CD0002C24
:102360000AD0284604F057FD002805D1214628460A
:10237000BDE8704004F05EB870BD04F0EBB870B515
:102380000C4605000AD04CB104F076FD012807D0B8
:102390002146284604F0FCF8012801D0012070BD38
:1023A000002070BD2DE9F84FDFF898A00F4605001A
:1023B000DAF80040A04603D0502F01D9A80702D078
:1023C000012000F05DB8FDF761FE8146EE1918E0CE
:1023D000A068A542204401D8A64203D885420ED267
:1023E00086420CD318A001F0BBFDA0683246204401
:1023F00000902346294616A001F0B2FD1BE0A0463E
:10240000E468002CE4D13946284604F043F990B141
:10241000B7F5805F03D3284604F05EFD58B1DAF8C3
:10242000001061B1C8F80C500020E8604846FDF784
:1024300035FE0020C5E74846FDF730FEC0E7CAF884
:102440000050F1E7E80400205B4552525D20000097
:10245000706F6F6C205B25702C20307825782920D8
:10246000636F6E666C696374207769746820706F3F
:102470006F6C205B25702C2030782578290A0000AD
:1024800018BCBDE8E08F000038B5050014D0FDF79A
:10249000FDFD174902460024486888420FD11046C6
:1024A000FDF7FCFD134D144900232A4613A00094A8
:1024B000FFF74EFE284638BD0E48401E38BDD0E915
:1024C00000131960D0E900134B6020F8064C01217D
:1024D00000F8081D00F108018482C0E9031481603E
:1024E000406828601046FDF7D9FD002038BD000087
:1024F000B8040020031D0002F8C3B2A16F735F751A
:102500006E73706563696669635F66696C65000018
:102510002DE9F8431C4F1D4D4FF000080F2801D343
:102520003C4616E01A4900EB4000096801EBC00484
:10253000FDF7ACFD06462078B0B1E06804F1080173
:10254000884201D1608898B13046FDF7A7FD0E4C56
:1025500008342946002322460EA0CDF80080FFF75C
:10256000F7FD2046BDE8F8833046FDF797FDD7E735
:102570000748001DFFF7CBFE84F800803046FDF7CA
:102580008DFD0020EEE70000011D0002F8C3B2A19E
:10259000B40400206F735F756E737065636966695C
:1025A000635F66696C6500002DE9F84300263D4DC8
:1025B000DFF8F48089460F2804D300232C462A46EE
:1025C000009666E0394900EB4000096801EBC00461
:1025D000FDF75CFD0746207848B13548006850B1EA
:1025E0003846FDF75BFD2F48001DBDE8F8833846EF
:1025F000FDF754FDE1E72F480568608840B1216987
:10260000A9420BD1401C60803846FDF747FD46E0EB
:10261000012060802561E888A082F5E7B9F1000F0C
:102620000ED02548008888B11E4C24A0641D01F0FE
:1026300097FC24A001F094FC3846FDF72FFD25E01F
:102640003846FDF72BFD1748C01CCEE7EC6120692A
:10265000E988C2888A4201D904F0DEFE4A46082190
:1026600004F1080004F0E8FF3846FDF717FD00F01C
:1026700077F92879400612D5FDF708FDA98821F0E1
:102680004001A980FDF70AFD064CA41D0023224647
:102690000096414614A0FFF75BFD2046A5E7002009
:1026A000A3E70000011D0002F8C3B2A1B40400209A
:1026B000F40400206C0400204C0400205B455252BE
:1026C0005D2000002121214C4F535F4552524E4F57
:1026D0005F4D55585F50454E445F494E5F4C4F43E8
:1026E0004B2121210A0000006F735F756E737065C6
:1026F00063696669635F66696C6500002DE9F8438C
:102700002549804600EB4800096801EBC004FDF74D
:10271000BDFC0026214DDFF888900746B8F10F0F69
:1027200008D2207830B11F486188026811B1206951
:1027300090420CD03846FDF7B1FC00232A464946AA
:1027400019A00096FFF704FD2846BDE8F883491E4E
:102750000904090C618003D03846FDF79FFC19E09D
:10276000C288A18A8A4201D004F056FEE06804F1D2
:1027700008018842F0D00121618028382061C18899
:10278000A1820821C66104F07DFF3846FDF786FC72
:1027900000F0E6F80020D8E7B4040020011D000294
:1027A000F8C3B2A16C0400206F735F756E7370651F
:1027B00063696669635F66696C6500002DE9F047CF
:1027C0000D4608985FEA020900F104018FB206D0B5
:1027D0004FF6FB71884205D92648BDE8F0872548A9
:1027E0000930FAE7E5B1D8B1DFF88C8005FB07F1D5
:1027F000D8F80000FFF7ADFD060014D0FDF746FC49
:102800001E4A01465068904210D10846FDF746FC2A
:102810003146D8F80000FFF7B2FD1648401CDCE74F
:1028200014480A30D9E71348401ED6E7D0E9002300
:10283000A0F11C041A60D0E900235360E5802781D1
:10284000012326600022A38022826582A281E28188
:10285000A0F10802526012604060006008304060E1
:1028600000600846FDF71AFC61890020C9F80010D5
:10287000B3E7000003060002F0040020C4040020B7
:1028800070B504460A2801D3204870BDFDF7FEFB51
:102890001F49054604EB4400096800EBC40001EB46
:1028A00080029088C0B1194C916902F11400E41CB7
:1028B000814213D1106A02F11C0188420ED1936A41
:1028C00002F12400834209D1508A138A1844D38824
:1028D000984208D0E41C01E00C4C641D2846FDF72A
:1028E000DDFB204670BD0020146810609080084811
:1028F000001DFFF713FD2846FDF7D0FB05482146D4
:102900000068BDE87040FFF73ABD00000506000210
:10291000C0040020F0040020F8B51C4615460E4601
:10292000074604F06FF9002806D100212B463246F5
:102930003846009404F0AEF8F8BD7FB582B01C466E
:102940000D46064604AA04F079F9002806D10321B1
:1029500004AB2A463046009404F09CF806B070BDE3
:1029600010B5FDF793FB044603F0F0FF0A49283841
:1029700048600968814202D00848008820B120469A
:10298000BDE81040FDF78ABB2046FDF787FBBDE898
:102990001040FDF786BB00006C0400204C040020B2
:1029A0000A464FF6FF7104F065B900002DE9F843BF
:1029B0001A4F1B4D4FF00008142801D33C4612E07B
:1029C0001849096801EB0014FDF760FB06462088F2
:1029D000A0B1E06804F10801884213D03046FDF749
:1029E0005DFB0E4C08342946002322460EA0CDF88C
:1029F0000080FFF7ADFB2046BDE8F8833046FDF7C9
:102A00004DFBDBE70748001DFFF78FFCA4F80080B3
:102A10003046FDF743FB0020EEE70000010700020F
:102A2000F8C3B2A1CC0400206F735F756E7370653C
:102A300063696669635F66696C6500002DE9F84348
:102A40000026324FDFF8C8808946142804D30023BB
:102A50003C463A46009650E02E49096801EB0014C6
:102A6000FDF714FB0546208838B1608848B1401E48
:102A700060802846FDF712FB46E02846FDF70EFB76
:102A8000E5E7B9F1000F09D02348006848B11F4CB1
:102A900022A0241D01F064FA22A00BE01B4CE41CD0
:102AA00025E02948008840B1184C1CA0641D01F0A5
:102AB00057FA26A001F054FA19E02D484A46082199
:102AC000076804F10800BC6104F0B6FD2846FDF774
:102AD000E5FAFFF745FF3879400615D5FDF7D6FA38
:102AE0000546B888094C20F04000B880A41D28464F
:102AF000FDF7D4FA00232246009641461DA0FFF7B9
:102B000027FB2046BDE8F8830020FBE70107000211
:102B1000F8C3B2A1CC040020F40400205B4552525B
:102B20005D2000002121214C4F535F4552524E4FF2
:102B30005F53454D5F50454E445F494E5445525298
:102B40002121210A000000004C0400202121214CF9
:102B50004F535F4552524E4F5F53454D5F50454E68
:102B6000445F494E5F4C4F434B2121210A00000036
:102B70006C0400206F735F756E73706563696669BE
:102B8000635F66696C6500002DE9F8432149224FB7
:102B90001428096801EB001402D33846BDE8F88315
:102BA000FDF774FA06462088DFF87080002588B1AA
:102BB000A0886188884215D13046FDF76FFA164C1F
:102BC0000023E41D22460095414615A0FFF7C0FAF8
:102BD0002046E3E73046FDF761FA00233C463A46DB
:102BE0000095F1E7E06804F1080290420BD040F84C
:102BF000105C0821283804F045FD3046FDF74EFAF8
:102C0000FFF7AEFE04E0491C61803046FDF746FA4E
:102C10000020C3E7CC04002001070002F8C3B2A1E2
:102C20006F735F756E73706563696669635F66690C
:102C30006C65000010B504F059FD040006D005A035
:102C400001F08EF905A001F08BF901E0FDF7F8F92C
:102C5000204610BD5B4552525D2000006F735469E1
:102C6000636B5374617274206572726F720A000034
:102C700070B5044600F034F8002829D1174D2068BB
:102C8000C0EBC000E96800EB400001EB8004FDF7F9
:102C9000FDF90646A08820F0020040F00400A08064
:102CA000E18804F1280003F00DFE03F04FFE05F16A
:102CB000200128384860EA695AB12A884AB9096867
:102CC000814206D03046FDF7E9F903F0D1FF00203C
:102CD00070BD3046FDF7E2F9F9E700004C04002032
:102CE0002DE9F05F0D465FEA00084FF0FF3B19D079
:102CF000DDB12869E0B12968E9B1AA8849481F2AED
:102D00000ED802D1484A91420AD14849484FE86852
:102D100009683A68891A491C88420FD941481D3010
:102D200000F08CB83F48001DFAE73E48801EF7E7E8
:102D30003C48801CF4E73B48401CF1E710B94FF4D5
:102D40003470E8600821FFF7F9F9E860B0F5987F82
:102D500002D23448C01CE3E7FDF798F906464FF06D
:102D60000009344CBA4611E0A1F128070846FFF7E4
:102D7000E3FA304807F128010838FFF7C1FAF9688B
:102D8000DAF80000FFF7FBFAC7F80C906168A1427F
:102D9000EAD1284908394868884202D1214C0E34CA
:102DA0003AE0A0F12804FFF7C7FA3046FDF776F9BC
:102DB00027690822E968DAF80000FFF7DEFA060062
:102DC00020D002463846E96804F014FD2060A86867
:102DD000E6602062E868C4F81890C4F81C900221EC
:102DE000A060A180A988E1802968C4F83CB0C4F83B
:102DF000489061612969C4F8509061620020C8F868
:102E000000708DE7FDF742F906460A4804F12801F3
:102E10000838FFF775FA084C3046FDF73FF92046B1
:102E20007EE70000030200029D670008A4850008F9
:102E3000A0850008840400200002000330BCBDE827
:102E4000C09F000070B505461648006808B11648D6
:102E500070BD1648008808B1154870BDEDB1FDF78A
:102E600015F9124C064620342068283003F00EFD78
:102E70002068818821F0040181802946206804F0BF
:102E8000F1F92068818841F0200181803046FDF70A
:102E900005F9FFF765FD002070BDBDE8704000F04A
:102EA000C1B80000F40400200D0200034C0400200F
:102EB0000E0200022DE9F047494D07464FF0FF3A58
:102EC0006869874202D14748BDE8F087A869874210
:102ED00002D144480D30F7E72869874202D34148C0
:102EE0000D38F1E7FDF7D2F88046C7EBC700E96877
:102EF00000EB400001EB8004A688F00706D0394CB7
:102F000040460A3CFDF7CAF82046DDE7F0064FF0E0
:102F1000000903D5288808B1A5F80090700708D5E6
:102F200004F1280003F0B2FCA08820F00400A08087
:102F300007E042F20800064203D004F12800FFF740
:102F4000FBF916F0600F02D0204604F015FCA088B3
:102F500020F0020040F00100A080C4F83CA0C4F8BA
:102F6000489003F0F3FC1E4E4FF0010A203628383B
:102F700070602079C0061FD504F1280106F1180001
:102F8000FFF7E4F92869E968C0EBC00000EB4000F6
:102F900001EB8000306007613168A088888030686C
:102FA000E168C160616A4162A4F804A04046FDF78F
:102FB00075F803F05DFE11E00948A4F804A004F1DF
:102FC00028013030FFF79CF90748E1680068FFF7F7
:102FD000D6F94046C4F80C90FDF760F8002073E77E
:102FE0004C04002014020002A08500080C4910B512
:102FF0000A69904201D3002010BDC0EBC000C9682F
:1030000000EB400001EB8004FDF740F82179C9078F
:1030100002D0FDF743F8EEE7FDF740F8606A10BD17
:103020004C04002070B5194CA4F1200220681269EC
:103030000169914201D3164870BD0079400701D45F
:10304000002070BDFDF722F805462068C08803F017
:103050006BFC012813D920682830FFF76DF9206830
:10306000818841F0040181802068C188283003F004
:1030700029FC2846FDF712F8FFF772FCE0E7284626
:10308000FDF70CF80248093070BD00006C04002008
:10309000070200020149D1E900017047A0040020A5
:1030A0002DE9F043474887B0C16C41F00401C16489
:1030B000C16C01F004010591C16C41F08001C16453
:1030C000C16C01F080010591C16C41F00101C16446
:1030D000C16C01F001010591C16C41F00201C164B4
:1030E000C06C394F00F002004FF4005405900022EC
:1030F00021463846FDF7D9FF4FF0904900222021A4
:103100004846FDF7D2FFDFF8C4804FF44266002244
:1031100031464046FDF7C9FF0125CDE900450024B1
:103120000294694638460394FDF7F8FE0F2000909C
:103130002748CDE9010469463846FDF7EFFE202017
:103140000090CDE90154694648460394FDF7E6FE38
:103150004020CDE90004694648460294FDF7DEFEB2
:103160000096CDE90154694640460394FDF7D6FE2A
:10317000E8028DE8310069464846FDF7CFFE00229F
:1031800011460620FEF706F80620FDF7F7FF00229D
:1031900011460720FDF7FEFF0720FDF7EFFF002295
:1031A00011460820FDF7F6FF0820FDF7E7FF002293
:1031B00011460920FDF7EEFF0920FDF7DFFF07B0FC
:1031C000BDE8F083001002400008004800040048F9
:1031D000000011100E4810B50C4901604FF4E131A8
:1031E0004160002181600C22C160C0E9041281614C
:1031F000C16101624162FEF7B5FD002805D0BDE85E
:103200001040462103A000F0A9BE10BD00380140C7
:10321000EC0600202E2E2F5372632F75736172748B
:103220002E6300000E4810B50C4901604FF4165192
:103230004160002181600C22C160C0E904128161FB
:10324000C16101624162FEF78DFD002805D0BDE835
:103250001040702103A000F081BE10BD0048004066
:10326000DC0700202E2E2F5372632F75736172744A
:103270002E630000F8B50A46044651A11046FCF73B
:10328000BEFF0546032100F0A1F89FED4F0AFF287D
:103290003ED02844694600F0B6F806469DF8000086
:1032A000801CC1B20A2000F0A6F8B6FBF0F0206046
:1032B0009DF80000801CC1B20A2000F09CF8B6FB0B
:1032C000F0F100FB116000EE900A05210A20F8EEF3
:1032D000600A00F090F82168484301EE100A9DF85A
:1032E0000000C0F10500C1B2F8EE411A0A2000F05A
:1032F00082F801EE100AB8EE411A61EE200A80EE63
:10330000801A71EE810AFCEEE00A10EE900A20604D
:103310000421284600F05AF8FF2801D0285C2071CB
:103320000521284600F052F8FF2840D0284469467D
:1033300000F069F806469DF80000801CC1B20A2022
:1033400000F059F8B6FBF0F044F8050F9DF80000C6
:10335000801CC1B20A2000F04EF8B6FBF0F100FB71
:10336000116000EE900A05210A20F8EE600A00F0D4
:1033700042F82168484301EE100A9DF80000C0F1B0
:103380000500C1B2F8EE411A0A2000F034F801EE4F
:10339000100AB8EE411A61EE200A80EE801A31EE72
:1033A000810ABCEEC00A10EE100A44F80509062195
:1033B000284600F00BF8FF2801D0285C6072F8BDA9
:1033C000244750524D4300000000704203460DE078
:1033D00002782A2A03D0202A01D37A2A01D9FF2091
:1033E00070472C2A01D1491EC9B2401C0029EFD1D7
:1033F000C01AC0B270470246012000E05043491E87
:10340000C9B2FBD270472DE9F04F4FF0000A8B464E
:103410008046D14655465446564601782D2902D15C
:1034200046F00206401C01782C2908D02A2906D033
:103430002E290AD030390A290AD300252C46B00794
:1034400001D508F10108002718E046F00106401CEC
:10345000F10702D0641CE4B201E06D1CEDB2401C27
:10346000DBE7E81B401EC1B20A20FFF7C4FF18F8D3
:103470000710303900FB01AA7F1CFFB2AF42F0D326
:10348000052C00D905248BF8004000270EE0E01B36
:10349000401EC1B20A20FFF7AEFFEA1902EB080195
:1034A0004978303900FB01997F1CFFB2A742EED367
:1034B00021460A20FFF79FFF0AFB0090B10700D5C5
:1034C000404200F000B830BCBDE8C08F0907090ECB
:1034D000002806DA00F00F0000F1E02080F8141D4B
:1034E000704700F1E02080F80014704710B5FCF739
:1034F00086FE08B1002010BD4FF0FF3010BD70B542
:103500000024002104F1B00000F017F90021084662
:1035100000F013F90021102000F00FF9002501211F
:10352000002000F00AF96D1CEDB2802DF7D3641C69
:10353000E4B2082CE5D370BD10B5C820FDF7A0FC9F
:103540000021AE2000F0F9F80021402000F0F5F84D
:103550000021B02000F0F1F80021C82000F0EDF8C3
:103560000021812000F0E9F80021FF2000F0E5F8BB
:103570000021A12000F0E1F80021A62000F0DDF8F4
:103580000021A82000F0D9F800211F2000F0D5F874
:103590000021D32000F0D1F80021084600F0CDF83A
:1035A0000021D52000F0C9F80021F02000F0C5F876
:1035B0000021D92000F0C1F80021222000F0BDF840
:1035C0000021DA2000F0B9F80021022000F0B5F85F
:1035D0000021DB2000F0B1F80021492000F0ADF817
:1035E00000218D2000F0A9F80021142000F0A5F89A
:1035F0000021AF2000F0A1F8BDE81040FFF77FBF29
:1036000010B50A460446002102F1B00000F095F81A
:10361000102040EA1410002100F08FF804F00F0091
:10362000BDE81040002100F088B800002DE9F0410D
:1036300015460E460746FFF7E3FF0F48002400EB50
:1036400085150121285D00F078F8641CE4B2102C87
:10365000F7D3761CF1B23846FFF7D2FF00242819C1
:10366000012190F8200000F068F8641CE4B2102CEE
:10367000F5D3BDE8F0810000F80400202DE9F04109
:10368000203A00240D468046D6B27F2803D9002078
:103690008D1C8046EDB2102B294610D0FFF7B0FFED
:1036A000164906EB460001EB40050121285D00F0BC
:1036B00044F8641CE4B2062CF7D3BDE8F081FFF7B0
:1036C0009FFF0F4F04EB06100121385C00F035F826
:1036D000641CE4B2082CF5D36D1CE9B24046FFF738
:1036E0008FFF002404EB061038440121007A00F01B
:1036F00024F8641CE4B2082CF4D3DEE7107B000845
:10370000387D00082DE9F041984617460E460446DC
:1037100000250DE0434631462046FFF7AFFF083451
:10372000E4B2782C02D90024B61CF6B26D1CEDB2BE
:103730007A5D002AEED1BDE8F081C0B209B100F097
:10374000F6BB00F0DDBB00002DE9F041444C05461E
:103750008846E0680026810728680DD0E16801F0FE
:103760000301814216D1A8B1E0686968C0F3021074
:10377000401C88420ED120E0012804D0022805D048
:10378000032807D108E02168890701E0216849057D
:10379000002907DB01265FE02168890302D4216844
:1037A0004903F5E7E1686A686FF00F0321F07301E0
:1037B00003EB021211430143E160206820F08060B6
:1037C0002060FDF777FC074605E000BFFDF772FCBF
:1037D000C01B022837D820680001F7D4B8F1000FC9
:1037E00018D0B8F1010F1DD0287D4FF07E41400860
:1037F00001EB4060A96840EA01202169194A1140A3
:1038000008432061206840F080602060FDF752FC92
:1038100007461AE0A868297B000240EAC1602169D6
:10382000114AECE7288A1149400801EB4050A96889
:1038300040EA012021690E4AE1E700BFFDF73AFCAA
:10384000C01B022801D9032606E020680001F5D537
:103850002069A969084320613046BDE8F081000075
:1038600000100240FF80FFF9FF80FF070000E0FF2B
:10387000FF809FFFF8B51C4D06460024A86DC000D0
:1038800002D5FDF7EBFC0DE0A86D40F08050A86577
:10389000A86D00F080500090FDF7E0FCA96D21F0CC
:1038A0008051A965B0F5007F04D0802E07D94FF074
:1038B00003040AE0802E08D9A02E01D804E001D12B
:1038C000022402E0702E00D101240848016821F092
:1038D000070121430160006800F00700A04201D009
:1038E0000120F8BD0020F8BD001002400020024079
:1038F000254810B5016EAEB041F001010166016EC0
:1039000001F001012D91816D41F080518165806D43
:10391000012100F080502D900804CDE90010022014
:1039200003240A90CDE90B4110210D910721CDE927
:103930000E1010906846FDF703FF00B1FEE70F2060
:10394000CDE9280400242A942B94042128A82C943F
:10395000FDF7EAFD00B1FEE744F247001B94119029
:103960004FF04050259019941A941D9411A8FDF71A
:103970007DFC00B1FEE74FF40070FDF73DFC002830
:1039800000D0FEE72EB010BD001002400D480168C7
:1039900041F4700101600C48016841F001010160CF
:1039A000002181600268094B1A4002608214C260E3
:1039B000026822F48022026081610249C0038039DA
:1039C0000860704788ED00E000100240FFFFF6EA53
:1039D00090F82410C90706D001684A68836A22F467
:1039E00000321A434A6090F82410890706D501680E
:1039F0004A68C36A22F480321A434A6090F824105D
:103A0000490706D501684A68036B22F480221A43ED
:103A10004A6090F82410090706D501684A68436B8C
:103A200022F400421A434A6090F82410C90606D5D1
:103A300001688A68836B22F480521A438A6090F886
:103A40002410890606D501688A68C36B22F40052E7
:103A50001A438A6090F82410490611D501684A6813
:103A6000036C22F480121A434A60016CB1F5801F86
:103A700006D101684A68436C22F4C0021A434A60C6
:103A800090F82410090606D501684A68806C22F473
:103A9000002202434A607047F8B500260446466794
:103AA000FDF708FB0546206800686FF07E470007B9
:103AB00008D52B4600224FF400112046009700F055
:103AC000B9F960B92068006840070AD52B46002282
:103AD0004FF480012046009700F0ACF908B10320B4
:103AE000F8BD202084F8710084F8720084F87060BA
:103AF0000020F8BD10B5806A0021A0F85A10A0F887
:103B00005210FEF78CF810BD01680A6822F490721A
:103B10000A6001688A6822F001028A60202180F828
:103B2000721000210166704710B5B0F85C2090F863
:103B300072300168222B04D0088B40F00800088303
:103B400010BD898C436D11401980416D891C416500
:103B5000B0F85A10491E0904090CA0F85A10EFD108
:103B600001680A6822F490720A6001688A6822F08B
:103B700001028A60202180F8721000210166FEF7A0
:103B8000E7F910BD10B5B0F85C2090F8723001680C
:103B9000222B04D0088B40F00800088310BD898CCC
:103BA0001140426D531C43651170B0F85A10491E04
:103BB0000904090CA0F85A10F0D101680A6822F42F
:103BC00090720A6001688A6822F001028A602021EE
:103BD00080F8721000210166FEF7BAF910BD0000EE
:103BE0002DE9F0410446016880682369E6691843BD
:103BF00063691025002733431843844A0B68844EB9
:103C0000334003430B6020684168E36821F440516E
:103C1000194341602168A069914201D0236A184389
:103C20008B6823F4306303438B607A4B21687A48B6
:103C300099420DD1D0F8880010F0030006D0012879
:103C400039D0022835D0032838D136E0012535E0B7
:103C5000724B99420BD1D0F8880010F00C0026D09E
:103C6000042828D0082824D00C2827D125E06C4B24
:103C700099420BD1D0F8880010F0300017D01028EE
:103C800019D0202815D0302818D116E0914215D12E
:103C9000D0F8880010F4406009D0B0F5806F0AD0E9
:103CA000B0F5006F05D0B0F5406F07D105E00025F5
:103CB00004E0022502E0042500E00825594B002617
:103CC0004FF4004091423DD135B1022D07D0042D73
:103CD00007D0082D10D107E0FDF7B0FC03E018462F
:103CE00002E0FDF7CBFCA8B3626802EB420181421F
:103CF00002D8B0EB023F01D9012774E0DFF8288138
:103D00005DB1022D0CD0042D13D0082DF4D1500834
:103D10002905401846F1000105E0FDF78FFC0AE097
:103D200050084249F5E70023FCF70BFAA0F5407173
:103D300055E0FDF7A3FC6268010E03025008181855
:103D40007141F0E7E1694FF6EF7881422ED1092DFC
:103D5000D2D200E047E0DFE805F006091F052205A2
:103D600005052500C8E7FDF769FC01E0FDF776FCD5
:103D70004100606801EB5001B1FBF0F080B2A0F1AE
:103D800010014145B8D84FF6F0710140C0F3420030
:103D900001432068C16026E025496068EAE7FDF735
:103DA0006DFCE5E74FF480316068E3E7092DA3D2AD
:103DB000DFE805F006091E052205050525009BE73D
:103DC000FDF73CFC01E0FDF749FC0146606801EBB2
:103DD000500100BFB1FBF0F080B2A0F110014145ED
:103DE0008AD82168C860266638466666BDE8F081D4
:103DF000606803EB5001EDE7FDF740FCE5E7616823
:103E000000EB5100B0FBF1F0E6E70000008000405D
:103E1000F369FFEF00380140001002400044004009
:103E2000004800400024F400FFFC0F00000024F4D0
:103E30000048E8012DE9F041984617460E46044631
:103E4000069D1DE0681C1BD02DB1FDF733F9A0EBDA
:103E50000800A84214D92068016821F4D0710160DB
:103E60002068816821F001018160202084F87100C0
:103E700084F87200002084F870000320BDE8F0810F
:103E80002068C06936EA000004D00020B842D9D0CA
:103E90000020F3E70120F9E70148FDF7C1BE00006B
:103EA000DC0700202DE9F041144F04464FF48066F2
:103EB000002231463846FDF7F8F800254FF4006837
:103EC00004F08000802816D0002241463846FDF7D5
:103ED000ECF86006040E012231463846FDF7E5F89D
:103EE000002231463846FDF7E0F86D1CEDB2082D92
:103EF000E6D3BDE8F0810122E7E7000000040048B6
:103F000010B50446FEF7D4F87820FFF7CBFFFEF794
:103F100003F90020FFF7C6FFFEF7FEF82046FFF783
:103F2000C1FFFEF7F9F8BDE81040FEF7DDB810B5A7
:103F30000446FEF7BDF87820FFF7B4FFFEF7ECF873
:103F40004020FFF7AFFFFEF7E7F82046FFF7AAFF94
:103F5000FEF7E2F8BDE81040FEF7C6B8FEE7000045
:103F60000FB4054B10B503A9044A029800F00AF9F2
:103F700010BC5DF814FB0000615B0008E80600203F
:103F80000FB41CB50246002007AC00290BD0491E17
:103F9000CDE90021054B6A462146069800F0F2F86B
:103FA000009A002111701CBC5DF814FBB948000890
:103FB0000FB4084B10B504A902AA039800F0E2F868
:103FC000044602A9002000F082FC204610BC5DF8E7
:103FD00014FB0000CF48000802E008C8121F08C107
:103FE000002AFAD170477047002001E001C1121F7A
:103FF000002AFBD1704700002DE9FF5F82B000214D
:10400000DDE90430020DDDF840B0034318D044F67A
:104010001050A2F2FF3242431514119801281FD00C
:10402000A5EB0B00401C5FEA000A4FF000064E4F64
:10403000DFF83891B046504615D5CAF1000413E0B8
:10404000119801244AA3012801D16FEA0B010298BB
:10405000119AC0E90031C0E9024206B000F08EB802
:10406000CBF10000DFE704460021404A491842EB4B
:104070000450CDE9001012E0E00707D032463B467D
:1040800040464946FCF738FC8046894632463B4666
:1040900010461946FCF730FC06460F466410002C0B
:1040A000EAD1DDE90401DDE90023BAF1000F06DA07
:1040B000FCF722FC42464B46FCF71EFC05E0FCF7F1
:1040C000FDF942464B46FCF7F9F904460E4600223C
:1040D000284BFCF787FC03D84FF0FF30014607E080
:1040E0000022254B20463146FCF757FBFCF755FADA
:1040F000102409E0002C0ADB0A220023FCF721F837
:10410000039B30321A55641E50EA0102F2D1641C3E
:10411000039AC4F111031444119A012A03D0012215
:1041200008430DD10AE0084304D000204FF0110BE2
:10413000119072E7A3EB0B056D1E0DE05B4504DDEE
:104140004FF0000205F1010504E003DA4FF0000230
:10415000A5F10105002AECD002981199C0E90231BD
:10416000C0E9004579E70000000014400000F03F7E
:10417000300000000000F0430000E03F30BCBDE82C
:10418000C09F00002DE9FF4F95B09B46894606462B
:1041900000250FE2252877D100242746F84A01217F
:1041A000059400E0044316F8013F203B01FA03F0B8
:1041B0001042F7D130782A2811D06FF02F033078D1
:1041C000A0F13002092A16D8059A44F0020402EB45
:1041D000820203EB42021044761C0590EFE759F887
:1041E000042B0592002A03DA504244F4005405904F
:1041F00044F00204761C30782E2816D116F8010FF0
:1042000044F004042A280DD06FF02F023078A0F17A
:104210003003092B09D807EB870302EB4303C718C8
:10422000761CF3E759F8047B761C30786C280FD0A5
:1042300006DC4C2817D068280DD06A2814D104E079
:10424000742810D07A280FD10DE044F400140AE04D
:1042500044F4801401E044F440147278824202D1A4
:1042600004F58014761C761C307866280BD013DC9D
:10427000582877D009DC002875D04528F6D0462884
:10428000F4D047281AD19DE118E0632835D064287E
:1042900079D0652812D195E1702873D008DC6728A1
:1042A000F1D069286FD06E280DD06F2806D1B5E007
:1042B00073282CD0752875D0782874D05A46179951
:1042C00090476D1C75E1C4F30250022809D0032801
:1042D0000DD0D9F8001004280DD00D6009F10409A3
:1042E00067E1D9F80010EA17C1E90052F6E7D9F8FA
:1042F00000100D80F2E70D70F0E719F8041B8DF83F
:10430000001000208DF80100EA46012003E059F872
:1043100004AB4FF0FF3061074FF0000102D40DE015
:1043200008F101018846B9420FDA8045F8DB1AF836
:1043300008100029F4D108E008F101018846814203
:10434000FADB1AF808100029F6D105985B46A0EBB5
:10435000080721463846179A00F097FA284400EBE0
:10436000080507E04DE029E10DE01AF8010B5A4677
:1043700017999047B8F10108F7D25B4621463846B5
:10438000179A13E142E00A220092C4F302524FF05E
:10439000000A022A08D059F804CB032A4FEAEC712C
:1043A0000AD00DE029E02AE009F1070121F0070217
:1043B000F2E802C1914609E00FFA8CFC4FEAEC7179
:1043C000042A03D14FFA8CFC4FEAEC71002907DA7A
:1043D0000A460021DCF1000C61EB02012D2202E013
:1043E000220504D52B228DF80420012203E0E207E8
:1043F00001D02022F7E7904659E00A2102E010227E
:104400000DE010214FF0000A00910BE010224FF058
:10441000000A44F004040827009203E008224FF049
:10442000000A0092C4F30252022A05D059F804CBC4
:104430000021032A08D009E009F1070121F0070251
:10444000F2E802C1914605E01FFA8CFC042A01D172
:104450000CF0FF0C4FF00008220728D5702806D07A
:10446000009B83F0100353EA0A0305D00EE04022BC
:104470008DF80420012208E05CEA010206D0302217
:104480008DF804208DF8050002229046009B83F0F1
:10449000080353EA0A030AD15CEA010201D1620768
:1044A00005D530228DF804204FF001087F1E5828D2
:1044B00004D034A003900EA802900DE036A0F9E7D6
:1044C00053466046009AFBF73CFE84460398825CA4
:1044D0000298401E029002705CEA0100F0D102983E
:1044E00006A9081A00F1200A600702D524F48034D6
:1044F00000E00127574502DDA7EB0A0000E000209D
:1045000000EB0A01009005984144401A0590E00331
:1045100006D45B462146179A059800F0B6F9054483
:10452000002706E001A85A46C05D179990476D1C08
:104530007F1C4745F6DBE0030CD55B462146179A06
:10454000059800F0A2F9054404E030205A46179976
:1045500090476D1C0099481E00900029F5DC08E08A
:10456000029802995A460078491C0291179990477F
:104570006D1CBAF10001AAF1010AF1DC65E100004D
:104580000928010030313233343536373839616229
:1045900063646566000000003031323334353637ED
:1045A00038394142434445460000000000F05BF9C1
:1045B0000544761C307800287FF4ECAD19B028460D
:1045C00000F04EB9620700D4062709F1070222F075
:1045D000070CFCE80223E14603F000485FEA080C00
:1045E00002D00FF2702C0DE05FEA045C02D50FF2EE
:1045F000682C07E05FEAC47C02D00FF2602C01E077
:10460000AFF2700C4FF0FF3823F00043CDF850C0EC
:1046100065280CD006DC452809D046281DD047283F
:104620003DD13DE0662818D067287ED138E00021D2
:10463000112F01DB112000E0781CCDE9000106A953
:104640000EA8FFF7D9FCDDE90F010E9A03910021B6
:10465000009207F1010A04914DE04FF000400097ED
:10466000CDE9011006A90EA8FFF7C6FCDDE90F028F
:1046700003920E9B11990022DDF80CA00093049286
:1046800011B9791C00EB010AB7EB0A0004D4C0F1A0
:10469000FF3007F1010A0490AAEB0700019044E003
:1046A000012F00DA01270021112F01DD112000E088
:1046B0003846CDE9000106A90EA8FFF79DFCDDE90B
:1046C0000F010E9A0391002104910092BA4621072E
:1046D0000CD40399514500DA8A46BAF1010F05DD81
:1046E000009AAAF10101515C302908D0B84202DADF
:1046F00010F1040F06DA0121CDE9011015E0AAF14D
:104700000101E9E7002805DC049901440491AAEBC2
:10471000000102E0411C514500DD8A460499401A1F
:10472000401C01904FF000400290200704D40198F3
:10473000504501DBCDF8048000208DF84F00029831
:104740000DF14F07B0F1004F25D02B200E900298AD
:104750004FF0020800280CDA404202902D200E9003
:1047600007E00A210298FBF743FF3031029007F877
:10477000011DB8F10001A8F10108F2DC029800283F
:10478000EFD1791E0E980870307800F0200040F0CC
:10479000450007F8020D12A8C01B00F10708149885
:1047A000007800B1012000EB0A01019801EBE071F3
:1047B00005984144401A401E0590E00306D45B462C
:1047C0002146179A059800F060F80544149800787F
:1047D00018B15A46179990476D1CE00324D55B46E3
:1047E0002146179A059800F050F805441CE00498FB
:1047F000002807DBDDE90301884203DD0098405C07
:10480000179901E0179930205A469047049805F10E
:104810000105401C04900198401E019004D12E20F7
:104820005A46179990476D1CBAF10001AAF1010A86
:10483000DDDC05E017F8010B5A46179990476D1C0F
:10484000B8F10001A8F10108F4DC5B462146179A93
:104850000598ABE62D0000002B00000020000000B2
:1048600030BCBDE8C08F2DE9F041044600251E464E
:104870001746880404D405E039462020B0476D1C53
:10488000641EF9D52846BDE8F0812DE9F0410446C3
:1048900000251E469046C80301D5302700E020279A
:1048A000880404D505E041463846B0476D1C641EB7
:1048B000F9D52846BDE8F0814A68002A06D00A6882
:1048C000531C0B6010704868401E486070470A68AF
:1048D000531C0B6010707047F0B587B00E4607464A
:1048E0001C460C9D142168460592FBF77DFC05A82B
:1048F0000090012001906A4631463846CDE90345D3
:1049000000F002F807B0F0BD2DE9F0478CB01400BC
:104910008A4606464FF0FF3711D086B1202104A801
:10492000FBF762FC142221460DF1100805A8FBF7E5
:1049300042FCE06838B1206928B1056804E03846D7
:104940000CB0BDE8F0873D4600F0FEF80146D4E922
:104950000302CDE90202CDE9006540F22313224AA9
:1049600022A0FFF7FDFA2B4DB9463946A869FDF79D
:104970001BFE49466869FDF717FE04A800F06CFAB3
:1049800001225146304600F039FE6869FDF7B6FE57
:10499000E96B2869FEF752F8074649466869FDF752
:1049A00003FE04A800F068FA6869FDF7A7FEA8698D
:1049B000FDF7A4FE022003F05FF867B100F0C4F831
:1049C000CDE9007601464FF49C73074A1248FFF781
:1049D000C7FA4846B4E7142208F104012046FBF761
:1049E000EAFB0020ACE700002E8400085B256C7514
:1049F0005D5B25733A25645D5B495D636D643A25B3
:104A000073206C656E2025642C2025702C25640A8B
:104A100000000000800600200C85000870B500240E
:104A20001A4D4FF47A7606E0012003F025F830465F
:104A3000FEF708FA641C2868FEF7D8FA08B10A2CB9
:104A4000F2DB2868FEF7D2FA60B12868FEF732FA86
:104A500040B100F079F8014640F263330C4A0DA0F2
:104A6000FFF77EFA00F0ECFD084800F051FB40B182
:104A700000F06AF8014640F26A33054A10A0FFF7D9
:104A80006FFABDE8704000F09DB90000800600207C
:104A9000788400085B256C755D5B25733A25645D41
:104AA0005B495D61745F726563765F7461736B20EF
:104AB00064656C657465206661696C6564210A00D3
:104AC0005B256C755D5B25733A25645D5B495D61B3
:104AD000745F7374727563745F6465696E69742062
:104AE0006661696C6564210A0000000001460248A5
:104AF0000068FDF744BC0000F00400200048704747
:104B00004C1B002070B50F4C4FF0FF35206C78B176
:104B100029466069FDF748FDA06B78B1C06968B1AE
:104B200000F012F8A16B8969814203D8642505E081
:104B3000284670BD0D1A4FF47A7045436069FDF741
:104B4000DDFDF5E78006002010B5FEF7A3FA4FF46F
:104B50007A71B0FBF1F010BD0C4910B50C6B4A6BCB
:104B60000B4900200823C968012C06D007E000BFCC
:104B700003EB4014145914B1401C8142F8D881420F
:104B800003D903EB40130121D15010BD8006002052
:104B90004C1B00202DE9F041184F0E468046BC6B9F
:104BA000002C29D0E2690AB1904718B1606838B189
:104BB00000251EE02046BDE8F041002100F05CBA6F
:104BC0003869BDE8F041FDF7DFBF606850F8251097
:104BD00071B14046FBF713FB50B1206930B16369F6
:104BE00023B11EB13246414602F0C3FEE560E7E75D
:104BF0006D1CA068A842E8D8BDE8F08180060020BE
:104C00001CB500281ED0014624222948FBF7D3FA00
:104C1000FFF79AFF0146264840F2333302690068E5
:104C2000CDE90002234A24A0FFF79AF9304800F0AA
:104C300037FB78B1FFF788FF01464FF44E731D4AEA
:104C40002CA030E0FFF780FF014640F22D33194AD7
:104C500033A028E000F0B6F800F006FD48B1FFF7F9
:104C600073FF014640F23F33124A38A0FFF778F94C
:104C70000DE000F041FE78B1FFF766FF014640F21B
:104C800045330C4A3BA0FFF76BF900F0D9FCBDE8B7
:104C90001C40174800F03CBAFFF756FF0146054A92
:104CA00040F24B333EA002B0BDE81040FFF758B9C8
:104CB0004C1B0020FF8300085B256C755D5B257332
:104CC0003A25645D5B495D436F6E666967202573B5
:104CD0002862756666657220746F74616C206973F2
:104CE00020256C75292E2E2E2E2E2E0A0A0000004D
:104CF000800600205B256C755D5B25733A25645D3D
:104D00005B495D70726570617265204154207374F7
:104D100072756374206661696C6564210A00000025
:104D20005B256C755D5B25733A25645D5B495D436E
:104D30006F6E666967206973204E554C4C2C206657
:104D400061696C656421210A0A0000005B256C75AD
:104D50005D5B25733A25645D5B495D61745F7573C6
:104D60006172745F696E6974206661696C65642143
:104D70000A0000005B256C755D5B25733A25645D58
:104D80005B495D6372656174655F61745F726563E1
:104D9000765F7461736B206661696C6564210A00DB
:104DA0005B256C755D5B25733A25645D5B495D43EE
:104DB0006F6E66696720636F6D706C657465212125
:104DC0000A0A000004490020C1F82C014FF4967132
:104DD0000148FBF709BA0000701B00203EB5FFF741
:104DE0008DFE1A490968CA69194BD2439506194CB8
:104DF0004FF0000210D4898C1B6A2569595521692E
:104E0000491C2161A369994201D1012323700069E2
:104E1000884200D822613EBDC869C043C006FAD4AA
:104E20001020086220696061A169CDE90010A061CD
:104E30000292986800230C226946FDF77EFD002847
:104E4000E9D0E068401CE0603EBD0000540800204E
:104E50008006002004040020064A0023916B0360B2
:104E600011B99063704711460A68002AFBD10860A7
:104E70007047000080060020084A916B884202D1EA
:104E80000868906370470A6804E0824202D10068B3
:104E900008607047002AF8D17047000080060020A3
:104EA00070B50546846B06E02068A863E06910B120
:104EB0002046FFF71BFE002CF6D170BD70B50546ED
:104EC000014605480068FDF744FA040002D029466F
:104ED000FBF78AF9204670BDF00400202DE9F0416F
:104EE0001D461746060007D035B10F48D0F82C21D3
:104EF000052A01D0272903DB4FF0FF30BDE8F08100
:104F0000C2EB0213521CC0F82C2100EB83040A46AA
:104F100031462046FBF74FF93046FBF782F9A06295
:104F2000C4E90C570020E9E7701B0020F0B5314CB4
:104F300087B00C20A66A4FF0FF370590FFF7E2FD1F
:104F4000A568034605AA02A92846FDF7E5FC002846
:104F5000F4D10498012817D039466069FDF724FB85
:104F600000F09EF86069FDF7C9FB206C00B1804736
:104F70000498A0B1FFF7E8FD014640F212231E4A53
:104F80001EA0FEF7EDFFD9E7FFF7DEFD014640F278
:104F90000323194A23A0FEF7E3FF07B0F0BD2A4818
:104FA00001693046FBF720F902A9304602F064FCA3
:104FB0000500C3D0FFF7C8FDCDE90056014640F219
:104FC0001D230D4A21A0FEF7CBFF2946304600F0F5
:104FD00011FC0028B2DC39466069FDF7E5FA00F003
:104FE0005FF829463046FFF7D5FD6069FDF786FB7F
:104FF000A4E70000800600204B8400085B256C7548
:105000005D5B25733A25645D5B495D617420726563
:105010006376206D73672073656E7420646F6E65B0
:105020000A0000005B256C755D5B25733A25645DA5
:105030005B495D61742072656376207461736B20D7
:10504000717569740A0000004C1B00205B256C75AB
:105050005D5B25733A25645D5B445D726563762014
:105060006C656E203D20256C7520627566203D20A4
:105070002573200A0000000010B5084CA26B824284
:1050800002D10168A16302E009B102680A60FFF77A
:105090002DFDA069BDE81040FDF730BB8006002063
:1050A00070B50F480025846B16E02668E06988B16A
:1050B000FFF74AFDA16988420CD3FFF745FD014681
:1050C000BB23084A08A0FEF74BFF29462046FFF7FE
:1050D000D3FF00E025463446002CE6D170BD000029
:1050E00080060020078400085B256C755D5B2573D6
:1050F0003A25645D5B495D6765742072656376205F
:10510000646174612074696D656F75740A000000D4
:1051100070B504004FF000064FF0FF3561D029460E
:105120006069FDF741FA2046FFF7BAFE6069FDF7B6
:10513000E5FA6068FDF73AFC48B1FFF705FD014666
:1051400040F2D9232C4A2DA0FEF70AFF2E466069B3
:10515000FDF7DEF948B1FFF7F7FC014640F2DF2327
:10516000254A31A0FEF7FCFE2E462069FDF71EFC05
:1051700048B1FFF7E9FC014640F2E5231E4A35A09D
:10518000FEF7EEFE2E46207F002518B1A069FDF740
:10519000BFF92577207B18B1A068FDF771FB257357
:1051A000206A10B1FFF7A2FC2562606A10B1FFF718
:1051B0009DFC6562A06A10B1FFF798FCA562E06AE9
:1051C00010B1FFF793FCE562606B10B1FFF78EFC46
:1051D0006563A56325634FF6FF70E5632060304685
:1051E00070BDFFF7B1FC014640F2CF23024A24A074
:1051F000FEF7B6FE284670BD678400085B256C7517
:105200005D5B25733A25645D5B495D64656C65741F
:10521000652061742E726563765F73656D206661CB
:10522000696C6564210A00005B256C755D5B257304
:105230003A25645D5B495D64656C657465206174E5
:105240002E636D645F6D7578206661696C6564219D
:105250000A0000005B256C755D5B25733A25645D73
:105260005B495D64656C6574652061742E7265735D
:10527000705F73656D206661696C6564210A00006A
:105280005B256C755D5B25733A25645D5B495D69E3
:105290006E7661696C6420706172616D210A000034
:1052A000F8B504004FF0FF3713D00C200090002316
:1052B00004F10802202165A0FDF780FA88B1FFF70C
:1052C00043FC01464FF41673634A64A0FEF748FEA0
:1052D000BAE0FFF739FC014640F251235E4A69A06B
:1052E000F4E701252573211D0020FDF759FB002659
:1052F00048B1FFF729FC014640F26123564A69A0F4
:10530000FEF72EFE94E004F11400FDF7BDF828B17D
:10531000FFF71AFC01464FF41A7309E004F1180074
:10532000FDF7B2F848B1FFF70FFC014640F26F23DA
:10533000494A67A0FEF714FE77E0257704F11001D3
:105340000020FDF72DFB48B1FFF7FEFB014640F2C0
:105350007723414A68A0FEF703FE63E0704D286999
:10536000FFF7ACFD2062E8B12869FFF7A7FD606296
:1053700010B32869FFF7A2FDA06238B32869FFF7D0
:105380009DFDE06200282BD0E8684001FFF796FD04
:10539000606300282ED0A663E8692063286AE06372
:1053A0000020F8BDFFF7D0FB014640F27E232A4AD9
:1053B0005CA0FEF7D5FD32E0FFF7C6FB014640F2E8
:1053C0008D23254A61A0FEF7CBFD25E0FFF7BCFB4E
:1053D00001464FF42573204A66A0FEF7C1FD18E090
:1053E000FFF7B2FB014640F29A231B4A6BA0FEF77F
:1053F000B7FD0BE0FFF7A8FB014640F2A123164AD8
:1054000071A0FEF7ADFDA06AFFF770FBE06AFFF741
:105410006DFB606AFFF76AFB206AFFF767FB206994
:10542000FDF7C4FA6069FDF773F86068FDF7BEFA2E
:10543000207F18B1A069FDF76BF82677207B18B1A3
:10544000A068FDF71DFA26733846F8BD72656376CD
:105450005175657565000000588400085B256C7502
:105460005D5B25733A25645D5B495D696E697420F7
:10547000726563765175657565206661696C6564F2
:10548000210A00005B256C755D5B25733A25645D20
:105490005B495D696E7661696C6420706172616DF3
:1054A000210A00005B256C755D5B25733A25645D00
:1054B0005B495D696E69742061745F726563765FD4
:1054C00073656D206661696C6564210A00000000E7
:1054D0005B256C755D5B25733A25645D5B495D6991
:1054E0006E697420636D645F6D7578206661696CA8
:1054F0006564210A000000005B256C755D5B257307
:105500003A25645D5B495D696E69742072657370EC
:105510005F73656D206661696C6564210A00000037
:105520004C1B00205B256C755D5B25733A25645D23
:105530005B495D6D616C6C6F6320726563765F6261
:105540007566206661696C6564210A005B256C756F
:105550005D5B25733A25645D5B495D6D616C6C6FC5
:105560006320636D6472657370206661696C656445
:10557000210A00005B256C755D5B25733A25645D2F
:105580005B495D6D616C6C6F6320757365726461FE
:105590007461206661696C6564210A005B256C7525
:1055A0005D5B25733A25645D5B495D6D616C6C6F75
:1055B0006320736176656464617461206661696CFF
:1055C0006564210A000000005B256C755D5B257336
:1055D0003A25645D5B495D6D616C6C6F6320666F3D
:1055E00072206174206C696E6B69642061727261F3
:1055F00079206661696C6564210A00002DE9F0413B
:1056000015460E468046FFF779FAB2B204464FF6C9
:10561000FF768769334641460848FCF79AFC012D1E
:105620000AD1A069FAF7FDFD33463946BDE8F041DD
:1056300082B20248FCF78DBCBDE8F081540800201E
:10564000084801680A6822F001020A6001680A68D5
:1056500022F010020A600068016821F02001016058
:105660007047000054080020F8B5204CFFF746FAB8
:1056700041681F4D012904D0022906D003290CD10D
:1056800007E01C496960252106E01B496960262165
:1056900002E01A4969602721A96069682160806871
:1056A0000026C4E90106E6600C202661C4E905066F
:1056B0002046FCF757FB18B17E2111A0FEF74EFCE7
:1056C00021684020086200220096114B1146A8680C
:1056D000FCF74CFD2068016841F010010160206872
:1056E000016841F0200101600020F8BD540800204D
:1056F00004040020003801400044004000480040FD
:105700002E2E5C5372635C61745F68616C2E630063
:10571000DD4D00082DE9F0438BB00E460746984654
:1057200091464FF0FF35202101A8FAF75DFD0120D9
:1057300003902CA009902C4C09A802902946A0693E
:10574000FCF732FF29466069FCF72EFF01A8FFF73E
:1057500083FB3846FAF765FD014601223846FFF71C
:105760004DFF6069FCF7CAFFC8212069FDF766F9A3
:1057700029466069FCF718FF01A80996FFF77CFB32
:1057800001A8FFF769FB002241464846FFF736FFB4
:105790006069FCF7B3FFE16B2069FDF74FF906463E
:1057A00029466069FCF700FF01A8FFF765FB606907
:1057B000FCF7A4FFA069FCF7A1FF022002F05CF94E
:1057C0006EB1FFF7C1F901464FF4BB73074A0848B1
:1057D0000096FEF7C5FB28460BB0BDE8F0834046B7
:1057E000FAE700003E000000800600204284000826
:1057F0005C8500082DE9F0410E4607460025104C57
:105800000AE000BFC5EB051004EB800138460B6BC6
:105810008A6A984738B16D1CD4F82C01A842F1DC93
:105820000020BDE8F081C5EB051004EB8000436B60
:105830001BB1806B3246394698473046F1E700008D
:10584000701B002000B587B00020ADF8040006A052
:1058500004900B4800904FF400600390694606A83E
:10586000FDF706FA07B000BD646174615F636F6C99
:105870006C656374696F6E5F7461736B0000000028
:105880003559000800B587B00120ADF8040006A026
:1058900004900A4800904FF480600390694606A87F
:1058A000FDF7E6F907B000BD646174615F72657071
:1058B0006F72745F7461736B00000000695A0008B6
:1058C00000B587B00020ADF8040006A00490084899
:1058D00000904FF48050039069460648FDF7C8F9E0
:1058E00007B000BD6D61696E5F7461736B0000008D
:1058F000755C00080004002000B587B00020ADF8FA
:10590000040006A00490094800904FF480500390D2
:1059100069460748FDF7ACF907B000BD61745F72D6
:105920006563765F7461736B000000002D4F0008A3
:105930008006002070B52DED028B82B0FDF772FC61
:105940000020024600902B4B07212720FCF70EFC7D
:10595000FDF7D5FD102328A201211E20FDF7D2FE60
:10596000274C9FED288A284D4FF47A7627A0FEF722
:10597000F7FA234932461B312D48FCF793FA2049A8
:105980001F481B31FDF776FCD4F8050000EE100A25
:10599000F8EE400A80EE880A85ED000A10EE100A43
:1059A000FAF713FE41EC100B607A009053EC102BC9
:1059B00020A0FEF7D5FA206800EE100AF8EE400AA3
:1059C00080EE880A85ED010A10EE100AFAF7FDFD57
:1059D00041EC100B2079009053EC102B1CA0FEF72B
:1059E000BFFA3046FDF72EFA0028BFD002B0BDEC5A
:1059F000028B70BD993E00085265706F7274000092
:105A0000BE1C00200050C347E006002054686973A4
:105A100020697320646174615F636F6C6C6563748B
:105A2000696F6E5F7461736B20210D0A00000000C6
:105A3000DC0700204C6F6E6769747564653A252E2B
:105A4000356620256C6320202020200D0A000000F0
:105A50004C617469747564653A252E35662025316C
:105A6000632020200D0A000070B5224C4FF47A7597
:105A700094ED010AB5EEC00AF1EE10FA33D0D4ED80
:105A8000000AF5EEC00AF1EE10FA2CD01A490020F7
:105A900041F80A0F48608860C860087410EE100A68
:105AA000FAF793FD41EC100B134853EC102B13A1A4
:105AB0000A30FEF77DFA2068FAF787FD41EC100BFB
:105AC0000D4853EC102B0DA11230FEF771FA0A4865
:105AD00011210A3000F0B6F8002801DB09A000E02F
