:020000040800F2
:100000000000012009000008DFF81400016841F435
:100010007001016072B60348804703480047000042
:1000200088ED00E0893800082D000008DFF80CD0CA
:1000300000F0A6FA004800477155000800000120B2
:1000400072B634483449026841EA0201016033481B
:100050004FF00101016032484168016001688A88FF
:100060004FF0100342EA03028A80D1F800C00CF17D
:10007000240C0CF1040CBCE8FF008CF309884FF051
:10008000020C8CF31488AE4662B63047EFF3108052
:1000900072B67047EFF3108062B6704780F3108835
:1000A000704720484FF0805101607047EFF3108C8B
:1000B00072B61D4A126822B12DE900509047BDE882
:1000C0000050EFF309801EF0100F08BF20ED108BD9
:1000D00040F804ED20E9F01F114D4FF010082E6894
:1000E0003060B78827EA0807B78068682860878883
:1000F00047EA08078780016800F018B851F804EB58
:100100001EF0100F08BF00F016B881F309888CF3B9
:100110001088704720ED00E00000FFFF6804002019
:100120006C04002004ED00E05004002030C9B1E868
:10013000C01FFFF7E3BFB1EC088BB1EC08CBFFF7B2
:10014000E4BF2DE9F05F0546002092469B468846B5
:100150000646814640241BE0284641464746224643
:1001600000F0BBF953465A46C01A914110D31146CC
:100170001846224600F0A2F92D1A67EB01084F46F7
:1001800022460120002100F099F917EB00094E41A9
:10019000201EA4F10104DFDC484631462A464346CE
:1001A00000F000B830BCBDE8C09FA0F16101192982
:1001B00000D82038704740EA01039B0703D009E0CC
:1001C00008C9121F08C0042AFAD203E011F8013B43
:1001D00000F8013B521EF9D27047D2B201E000F89C
:1001E000012B491EFBD270470022F6E710B51346DB
:1001F0000A4604461946FFF7F0FF204610BD30B509
:1002000005462A460B4612F8010B13F8014B08B1BC
:10021000A042F8D01CB1002802D06D1CF1E728469E
:1002200030BD421C10F8011B0029FBD1801A704719
:1002300010B5002200E0521C835C8C5CA34201D10B
:10024000002BF8D1D8B2E1B2401A10BD0FB400B5FE
:100250008DB010A909900B9000914FF0FF300A90DB
:1002600000200C9005480690054807906A4609A8AA
:100270000F9900F057F90DB05DF814FB4105000827
:100280005F0500082DE9FF5F1D464FF0FF3BD5E9F4
:10029000014691465F464FF00008A9697F1C01980E
:1002A0008847296A824688470028F6D1BAF1FF3F7D
:1002B0000CD024F4C064002E19DD600614D5BAF108
:1002C0002B0F09D0BAF12D0F0ED103E0584604B020
:1002D00000F07EB844F48064A9697F1C01988847C7
:1002E000761E8246002E02DDBAF1300F03D0B9F13E
:1002F000000F26D032E0A969761E44F400747F1CFA
:10030000019888478246002E05DDBAF1780F06D0A5
:10031000BAF1580F03D0B9F1000F10D01EE0B9F1B7
:10032000000F02D0B9F1100F18D1A969761E24F47C
:1003300000747F1C019888478246102002E0082044
:1003400000E00A20814609E008FB0908A969761E39
:1003500044F400747F1C019888478246002E05DD16
:100360004946504600F0C9F80028EDDAE9690198DD
:100370008847A00502D46FF00100A8E7E00725D167
:10038000600613D5600502D5C8F1000000E04046C4
:1003900029680A1D2A600968220501D5087015E040
:1003A000220701D5088011E008600FE02868011DD0
:1003B00029600068210502D580F8008006E0210749
:1003C00002D5A0F8008001E0C0F8008038467EE742
:1003D00030BCBDE8C09F2DE9FF5FD2E901A74FF017
:1003E0000008916999461446DDF838B046460198F0
:1003F0008847054659EA0B0005D009E0A169761C3B
:10040000019888470546216A284688470028F5D183
:10041000681C03D05FEACA7005D015E04FF0FF30CA
:1004200004B000F048B82068011D2160D0F80080B9
:100430000AE05FEACA7001D108F8015BA169761C85
:100440007F1E019888470546002F1ADD681C18D0CA
:10045000B9F1000F0DD0E81705EBD060421120F084
:100460001F0059F822102A1A012090400142E0D1C1
:1004700007E0BBF1000FDCD1216A2846884700283D
:10048000D7D0E16901988847BBF1000F07D1002E52
:1004900005DD5FEACA7002D1002188F80010A0686B
:1004A000B84203DDBBF1000F03D017B16FF00100BC
:1004B000B6E73046B4E730BCBDE8C09F202A04DB75
:1004C000203A00FA02F1002070479140C2F1200367
:1004D00020FA03F3194390407047202A04DB203AA6
:1004E00021FA02F00021704721FA02F3D040C2F154
:1004F000200291400843194670473A2800D230380C
:1005000020F02002412A01D3A2F13700884201D312
:100510004FF0FF307047000002681144137801600B
:1005200018467047D16004495161044911620021A5
:100530001161114600F03CB819050008A505000836
:10054000426842B1016811F8013B23B1521EC0E973
:100550000012184670470121C160881E704742682A
:100560005AB1C368016843B983688B4205D0491EFC
:10057000521CC0E90012002070474FF0FF30704756
:10058000064C074D06E0E06840F0010394E80700E0
:1005900098471034AC42F6D3FFF74CFDF47E0008C8
:1005A000247F0008C0B24FF4F05100F09BB9000066
:1005B0002DE9F34F8BB04FF0000801F10C000C4611
:1005C0004FF0010B46460DF1080A019062690121C6
:1005D00001989047051E2DD0252D2CD0216A8847E3
:1005E000C0B16269012101989047216A88470028BB
:1005F000F7D1411E62690198904700E0761CA1691D
:100600000B988847216A88470028F7D1E1690B9841
:100610008847DBE7A1690B9888470746A84201D1C4
:10062000761CD3E7E1690B9888477F1C02D1B8F1AB
:10063000000F6FD046E1002762693D4639460198B8
:1006400090472A2804D16269012101989047012529
:10065000DFF884926269012101989047A0F130018E
:100660000A290AD24F45E5DC07EB870100EB410779
:10067000303FDFD445F01005ECE7E90601D46FF018
:1006800000476C280AD04C2814D0682815D06A2856
:100690000DD074281CD07A281AD01DE0626901217F
:1006A000019890476C2802D045F0040514E045F00D
:1006B00002050DE045F020050AE06269012101987C
:1006C0009047682802D045F0080505E045F400652C
:1006D0006269012101989047C4E9015765283DD01E
:1006E00019DC58287AD00CDC452837D004DC2528C2
:1006F00026D0412831D131E046282FD047282CD1AF
:100700002CE05B2877D0612828D063287CD064282F
:1007100023D15AE0D0E06F2848D008DC66281DD0ED
:1007200067281BD0692821D06E2816D127E07028B1
:1007300045D0732868D0752847D078280DD14DE072
:10074000A1690B988847054625283FF469AFE16900
:100750000B9888476D1C3FF46AAFB3E023466A46A6
:100760006FF001000B99AFF300809EE045F0400070
:100770006060A80723464FF0000236D43EE0E80749
:100780007FF447AF2068011D21600068290501D56D
:1007900006701BE7290701D5068017E7A90703D5CF
:1007A000F117C0E9006111E706600FE745F040006E
:1007B0006060A80723464FF0080216D41EE040F6FA
:1007C0000E0125EA0100606016E045F0400060601F
:1007D000A80723464FF00A0207D40FE045F0400077
:1007E0006060A80708D5234610226FF001000B991E
:1007F000AFF3008059E007E0234610226FF00100BC
:100800000B99FFF73FFD50E04FF000094F464B4674
:10081000632802D05B2806D040E0E80601D401201E
:10082000A06001273AE062690121019890475E28A3
:1008300005D14FF001096269494601989047216945
:1008400039B900210A46534643F82120491C08299A
:10085000FADBB0B3216969B9C11700EBD16253115A
:100860000AEB830122F01F02821A01200B689040DC
:1008700003430B6062690121019890475D28E8D12C
:10088000B9F1000F09D00020514651F82020D24381
:1008900041F82020401C0828F7DB02AB22460097D5
:1008A0006FF001000B99FFF796FD00280CDA401C51
:1008B00008D1BBF1000F05D04FF0FF300DB000F0B4
:1008C0000DB8FFE74046F9E7E90701D108F1010853
:1008D00006444FF0000B79E6CCCCCC0C30BCBDE824
:1008E000C08F00007F2801D9002208E0064A02EBF1
:1008F0005002C007127800D1120902F00F02012045
:100900009040084070470000067E000870B58C18C3
:1009100010F8015B15F0070301D110F8013B2A1113
:1009200006D110F8012B03E010F8016B01F8016B00
:100930005B1EF9D12B0705D40023521E0DD401F8FC
:10094000013BFAE710F8013BCB1A921C03E013F8C5
:10095000015B01F8015B521EF9D5A142D8D30020FA
:1009600070BD0000F8B50446002000902068816842
:1009700001F00301012902D10168C90735D181685D
:100980001B4A114222D18168D5432940491C81600C
:10099000184819490068B0FBF1F000EB80004000F6
:1009A00000E0401E00900028FBD100F0A1FC0646AC
:1009B00016E0816811F0010F03D181682940491CBC
:1009C000816000F095FC801B022809D9A06D40F0E1
:1009D0001000A065E06D40F00100E0650120F8BD69
:1009E00020680168C943C907E3D10020F8BD0000B1
:1009F0003F0000802404002080841E00012000F0BD
:100A00009FBB022000F09CBB2DE9F8430027044661
:100A1000009790F85400DFF8C8930D46B8460128B7
:100A200011D0012684F85460206801F0AFFB60B15A
:100A3000A06D40F02000A0655FF0010784F85480AD
:100A40003846BDE8F8830220FBE76868052812D81D
:100A5000022807D0032807D0042807D0052807D08C
:100A6000062007E00C2005E0122003E0182001E03A
:100A70004FF480706860A9884FF4407C01F44073A3
:100A80009CFAACFCBCFA8CFC206823FA0CF300EB5B
:100A900083002A6801F01F014FF01F0C0CFA01FCC3
:100AA000036BC2F3846223EA0C038A40134303639B
:100AB0002068816811F00C0F1CD1AA68296801F028
:100AC00069FB20686969C268C2F3C10252009140A3
:100AD0002A69042A0FD000EB82002B68DFF804C3D8
:100AE000026E03F0F84302EA0C020B431A4342F091
:100AF0000041016672E0002101F042FB40032068E2
:100B00004FF0000173D001F03BFB90FAA0F0B0FA77
:100B100080F1286842036FD090FAA0F0B0FA80F01C
:100B2000814204D100221146206801F056FB0121C8
:100B3000206801F025FB400320684FF001015ED0E2
:100B400001F01EFB90FAA0F0B0FA80F12868420391
:100B50005AD090FAA0F0B0FA80F0814204D100227D
:100B60000121206801F039FB0221206801F008FB17
:100B7000400320684FF0020149D001F001FB90FAD8
:100B8000A0F0B0FA80F12868420345D090FAA0F0B6
:100B9000B0FA80F0814204D100220221206801F0E5
:100BA0001CFB0321206801F0EBFA400320684FF0A2
:100BB000030134D001F0E4FA90FAA0F0B0FA80F129
:100BC0002868420330D090FAA0F0B0FA80F0814259
:100BD00004D100220321206801F0FFFA2068816817
:100BE00001F00301012925D121E000E004E001F03A
:100BF000C7FAC0F384618CE7C0F3846090E701F02A
:100C0000BFFAC0F38461A1E7C0F38460A5E701F0F7
:100C1000B7FAC0F38461B6E7C0F38460BAE701F0C5
:100C2000AFFAC0F38461CBE7C0F38460CFE701681B
:100C3000C9077DD12A7B296850F8B03FC1F3120C57
:100C400023EA0C0302F0200C4FF0FF3202FA0CF200
:100C50000A40C2F312010B430360E96849456AD1B7
:100C60002868410317D090FAA0F1B1FA81F1491C2C
:100C700009294FEA40312DD800290FD090FAA0F170
:100C8000B1FA81F101F1010106FA01F609D100BFC3
:100C9000C0F3846109E0C0F38461E8E7C0F38461D4
:100CA000F0E790FAA0F1B1FA81F101F1010146EA11
:100CB000816102D1C0F3846003E090FAA0F0B0FA41
:100CC00080F000EB40004FF4401202EB005041EA8C
:100CD00000012AE000290CD090FAA0F1B1FA81F1CC
:100CE00001F1010106FA01F606D100BFC0F38461EB
:100CF00006E0C0F38461F3E790FAA0F1B1FA81F164
:100D000001F1010146EA816102D1C0F3846003E090
:100D100090FAA0F0B0FA80F0334A00EB400002EB0A
:100D2000005041EA000141F00071AA68206800E02B
:100D300001E001F02FFA2D4E29682D4B2D4D2E4844
:100D4000B14204D1826802F0E07212020FD59942DA
:100D500004D1826802F0E072D20108D5A9427FF482
:100D60006DAE826802F0E07252023FF567AE234A30
:100D7000B1421AD121689142F1D18168826801F0B3
:100D8000E07141F4000122F0E0720A4382601C48E5
:100D90001C490068B0FBF1F0C0EB0010C00000E09F
:100DA000401E00900028FBD148E6994208D12168F6
:100DB0009142F9D1816801F0E07141F0807109E060
:100DC000A942F1D121689142EED1816801F0E07130
:100DD00041F48001826822F0E0720A4382602DE6CD
:100DE00000007F4000F0FF03000050FE000052C7EB
:100DF000000084CB01000080000304500000045078
:100E00002404002080841E000068006C70470000ED
:100E1000F8B54FF0000504002E46009502D0A06DF5
:100E200010B107E00120F8BD204600F0BFF8E665EC
:100E300084F8546020688168C1F3407119B18168F9
:100E4000534A1140816020688168C1F3007191B9F3
:100E50008168504A114041F0805181604E484F49AD
:100E60000068B0FBF1F000EB8000400000E0401EA5
:100E700000900028FBD120688168C1F3007141B95E
:100E8000A16D41F01001A165E16D41F00101E16545
:100E90000125A16DC90602D401F078F930B1A06D29
:100EA00040F01000A06501252846F8BDA06D20F493
:100EB000807040F00200A0652068816801F00301A5
:100EC000012902D10068C00706D1354861688268EF
:100ED00022F47C120A438260E168A06BE269084355
:100EE000A16841EA42310843616A40EA01400129B0
:100EF00004D1218D2B4A02EB41410843E16A29B11B
:100F000001F47071226B014342EA01002168CA6852
:100F1000254B1A400243CA602068816811F00C0F0B
:100F200012D1A169626B890341EA4202C16844F2AD
:100F3000020399431143C160E06B01280CD0206883
:100F4000016921F001010161206901282068016B1C
:100F500021F00F0111D013E0D4E910010843D4E9C6
:100F600012121143084321680A6940F2FC739A4344
:100F7000104340F001000861E6E7226A521E114367
:100F80000163A06D20F0020040F00100A0658BE736
:100F9000C0FFFF5FC0FFFF7F2404002080841E008D
:100FA000000304500000FEFF07C0F0FF00B500681A
:100FB0000C4987B0884213D10B48C16C41F40051F1
:100FC000C164C06C694600F4005005908020009018
:100FD0000B200190002002904FF0904000F0BCF8F0
:100FE00007B000BD00000450001002402DE9F041A0
:100FF000044640690D4608280AD02068C068C0072A
:1010000008D0A06D40F02000A0650120BDE8F0816F
:10101000082600E0042600F06BF9074610E0681C83
:101020000ED025B100F064F9C01BA84208D9A06D0C
:1010300040F00400A065002084F854000320E5E798
:10104000206800683042EAD0A06D40F40070A065CE
:101050002068C16811F4406F0FD1E16969B9016876
:1010600009070AD5A16D21F48071A165A16DC9049C
:1010700003D4A16D41F00101A165C168082E05D01E
:10108000490401D40C2101600020BFE70821FAE7E0
:1010900010B50446006801F079F810B10221084645
:1010A00010BD94F8540001280CD0012084F854009D
:1010B0002046FFF757FC01004FF0000004D084F8F1
:1010C0005400ECE7022010BDA26D40F601639A4384
:1010D00042F48072A265A26D22F48012A265A26D14
:1010E000D20404D5E26D22F00602E26500E0E0657C
:1010F00023681C221A6084F854002068C268920198
:1011000005D5A26D22F4005242F48052A265826895
:10111000024B1A40121D8260C1E70000C0FFFF7F32
:1011200070B5044600F0E4F80546601C00D0641C6D
:1011300000F0DEF8401BA042FAD370BD70470000FB
:10114000044910B50A68024202D00860FFF7F6FFB2
:1011500010BD0000140401402DE9F84FDFF864B120
:1011600000234FF0010C4FF0030A4FF00F090BF171
:10117000040EA0E00CFA03F6324072D04C68022C48
:1011800001D0122C0ED1DC0800EB8408D8F82040E6
:101190005D07EF0E09FA07F5AC430D69BD40254325
:1011A000C8F8205007685D0091F804800AFA05F439
:1011B00008F00308A74308FA05F848EA0708C0F84A
:1011C00000804F68012F05D0022F03D0112F01D0CE
:1011D000122F11D18768D1F80C80A74308FA05F8BF
:1011E00048EA0708C0F808804768B7430E79C6F395
:1011F00000169E403E434660C668A6438C68AC40DD
:101200003443C4604C68E40054D52F4C256E45F03F
:1012100001052566246E23F0030504F00104009403
:101220002A4C2E19B4689D072F0F09FA07F5AC4315
:10123000B0F1904F04D0264DA84203D1012512E011
:10124000002510E0234DA84201D102250BE0224DDC
:10125000A84201D1032506E0204DA84202D1042571
:1012600001E027E00725BD402543B560DBF80040DD
:101270005D464E689443F60300D514432C60DEF8B7
:10128000004075464E689443B60300D514432C6065
:101290000C4D08352C684E689443F60200D5144373
:1012A0002C60084D0C352C684E689443B60200D56E
:1012B00014432C605B1C0A6832FA03F47FF45AAFC3
:1012C00000F00EB800040140001002400000014090
:1012D0000004004800080048000C004800100048C6
:1012E00018BCBDE8E08F0AB1816170478162704728
:1012F00010B501F027FF10BD10B5032000F088F8ED
:10130000002000F005F800F017F8002010BD0000E4
:1013100010B5044607484FF47A710068B0FBF1F04D
:1013200000F086FD00222146501E00F051F80020FA
:1013300010BD0000240400201E4808B5016E41F0D5
:1013400001010166016E01F001010091816D41F022
:1013500080518165806D00F080500090032000F086
:1013600057F8002211466FF00B0000F031F8002210
:1013700011466FF00A0000F02BF8002211466FF0C2
:10138000090000F025F800221146501F00F020F857
:1013900000221146101F00F01BF800221146901E7B
:1013A00000F016F80022BDE808401146501E00F07B
:1013B0000FB800000010024000F01F020121914010
:1013C0004009800000F1E020C0F8001170470000E3
:1013D000F0B40E4B1B680C46C3F30223C3F10705A0
:1013E000042D00D90425191D072901D2002300E08E
:1013F000DB1E012606FA05F1491E214099409E4058
:10140000761E16403143F0BC01F0A6BF0CED00E0A3
:10141000064900F0070208684FF6FF03184040EA4B
:101420000220034A10430860704700000CED00E002
:101430000000FA051549B0F5007F0868C0F34120A7
:1014400009D0022805D0086820F4C06040F480600C
:101450000860002070470128FBD0086820F4C060B5
:1014600040F4007008600A480A4A0068B0FBF2F0D5
:101470003222504300E0401E10B14A695205FAD4AE
:1014800048694005E5D50320704700000070004022
:101490002404002040420F000248006800F4C060AD
:1014A00070470000007000402DE9F84F0446002707
:1014B0000088A84D3E46000515D5606C60B1B0F5BA
:1014C000000F04D0B0F5400F2BD001270AE0E868E8
:1014D00040F48030E86024E00021201D02F0B2F8E2
:1014E00007001ED03E46206880033AD5A86D4FF015
:1014F0000008C00009D4A86D40F08050A865A86D10
:101500004FF0010800F080500090DFF84CA2DAF8AC
:10151000001041F48071CAF80010FFF7E9FE81461F
:1015200010E0D5F88800616C20F440000843C5F84D
:101530008800D8E7FFF7DCFEA0EB0900022801D9FC
:10154000032705E0DAF80000C005F3D5002F7DD0B1
:101550004FEA0706B8F1000F03D0A86D20F08050C5
:10156000A8652078C00707D0D5F88800216A20F048
:1015700003000843C5F888002078800707D5D5F810
:101580008800616A20F00C000843C5F888002078C4
:10159000400707D5D5F88800A16A20F0300008433D
:1015A000C5F888002078800607D5D5F88800E16A5C
:1015B00020F440600843C5F888002088800507D5DE
:1015C000D5F88800E16B20F440200843C5F8880076
:1015D0002088400507D5D5F88800216C20F44010FC
:1015E0000843C5F888002078400607D5D5F888005C
:1015F000216B20F440500843C5F88800207800068D
:1016000007D5D5F88800616B20F440400843C5F841
:1016100088002088C00507D5D5F88800A16B20F484
:1016200040300843C5F8880020684FF00067000389
:101630004FF0806850D5D5F88800A16C20F040604C
:101640000843C5F88800A06CB84200E005E03BD133
:10165000E86840F48010E8603EE0D5F8900010F4AF
:10166000407014D0A16D814211D0D5F89000D5F80A
:10167000901020F4407041F48031C5F89010D5F8F6
:10168000901021F48031C5F89010C5F89000C00783
:1016900011D0FFF72DFE074641F2883907E000BF61
:1016A000FFF726FEC11B494501D9032652E7D5F8AD
:1016B00090008007F4D5D5F89000A16D20F440701B
:1016C0000843C5F8900045E7404505D10121201D9C
:1016D00001F0B8FF00B106462068400317D5D5F8E1
:1016E0008800E16C20F040600843C5F88800E06C99
:1016F000B84204D1E86840F48010E86007E0404553
:1017000005D10121201D01F09DFF00B10646208872
:10171000400411D5D5F88800216D20F040500843D1
:10172000C5F88800206DB0F1805F05D10221201D31
:1017300001F088FF00B106462088000406D555F860
:10174000880F616D20F0804008432860304600F02B
:1017500005B80000001002400070004018BCBDE851
:10176000E08F00002DE9F0470F46050058D03E4EAF
:10177000306800F00700B84209D2306820F0070056
:1017800038433060306800F00700B84248D128780C
:10179000364CC0072CD06868032811D0022812D01C
:1017A000216898B1490500293ADAA16821F00301BE
:1017B0000143A160FFF79CFD804641F2883910E0AB
:1017C00021688901EFE721688903ECE78907EAE7E7
:1017D000FFF78EFDA0EB0801494502D90320BDE8C3
:1017E000F087A068696800F00C00B0EB810FEFD1C2
:1017F0002878800705D5A068A96820F0F000084384
:10180000A060306800F00700B8420BD9306820F0C3
:10181000070038433060306800F00700B84201D05C
:101820000120DCE72878400705D5A068E96820F4A6
:10183000E0600843A0602878000706D5A068296901
:1018400020F4605040EAC100A06000F035F8A168C3
:10185000074AC1F30311515CC840064908600020E3
:10186000FFF756FD0020BAE70020024000100240BA
:1018700000740008240400200448054900688968B1
:10188000044AC1F30221515CC8407047240400207F
:101890000010024040740008044805490068896847
:1018A000044AC1F3C221515CC8407047240400209F
:1018B000001002404074000830B52D49002318463E
:1018C0008A682C4C12F00C0F4FEA640514D08A6819
:1018D000C2F38102032A04D1CA6802F00302012A7A
:1018E0000AD08A68C2F38102012A19D08A68C2F339
:1018F0008102022A16D016E00A68120704D4D1F831
:101900009420C2F3032202E00A68C2F303121A4BC6
:1019100053F822308A6812F00C0F04D1184602E006
:10192000204600E028468A68C2F38102032A1DD1BE
:10193000C868CA6800F00300C2F30212521C0228F1
:1019400004D0032805D0B3FBF2F004E0B4FBF2F0BE
:1019500001E0B5FBF2F0CA68C968C2F30622504341
:10196000C1F34161491C4900B0FBF1F030BD0000FA
:10197000001002400024F400107400082DE9F84320
:1019800004007DD02078FE4DC0065DD5A86810F01B
:101990000C0F0AD0A0690028286873D040F001001D
:1019A0002860FFF7A5FC064655E02868800702D5A9
:1019B000A0690028E5D0216A2868000703D52868B7
:1019C00000F0F00004E0D5F89400F02202EA1010D4
:1019D000814216D9084601F0CBFE002850D1286874
:1019E00040F0080028602868216A20F0F0000843D1
:1019F00028606868E16920F47F4040EA012068605F
:101A000015E0286840F0080028602868216A20F066
:101A1000F000084328606868E16920F47F4040EAEC
:101A200001206860206A01F0A3FE0028D6D1FFF7EC
:101A300043FFA968D34AC1F30311515CC840D2499E
:101A400008600020FFF764FC2CE000BFFFF750FCAB
:101A5000801B02287ED828688007F7D5286840F0C8
:101A6000080028602868216A20F0F00008432860F8
:101A70006868E16920F47F4040EA0120686011E075
:101A8000B2E0FFE720F001002860FFF731FC0646D6
:101A900005E000BFFFF72CFC801B0228DAD828687D
:101AA0008007F7D42078C00748D0A868C0F3810029
:101AB00002281DD0A868C0F38100032803D1E8687C
:101AC000C043800714D06068B0F5803F17D0B0F5F0
:101AD000A02F286817D020F480302860286820F4D0
:101AE000802028606068E0B1FFF702FC064614E041
:101AF0002868800322D56068002875D01EE0286819
:101B000040F48030EDE740F480202860F7E700BF24
:101B1000FFF7EEFB801B64289CD828688003F7D56C
:101B20000CE0FFF7E5FB064605E000BFFFF7E0FB32
:101B3000801B64288ED828688003F7D4207880071B
:101B400042D5A868C0F38100012816D0A868C0F368
:101B5000810000E0CEE0032804D1E86800F0030033
:101B600002280AD0E068002828681DD040F4807060
:101B70002860FFF7BDFB06460BE0286840050BD543
:101B8000E0680028B9D007E0FFF7B2FB801B02280D
:101B900084D828684005F7D56868217C20F0F85083
:101BA00040EA016068600FE020F480702860FFF771
:101BB0009FFB064605E000BFFFF79AFB801B02284B
:101BC000AAD828684005F7D42078000729D560698D
:101BD0000028D5F8940013D040F00100C5F8940017
:101BE000FFF786FB064606E01DE100BFFFF780FB1E
:101BF000801B02287ED8D5F894008007F6D510E027
:101C000020F00100C5F89400FFF772FB064604E0DF
:101C1000FFF76EFB801B02286CD8D5F89400800774
:101C2000F6D42078400761D5A86D0026C00008D4FE
:101C3000A86D40F08050A865A86D012600F0805086
:101C4000009052480168C90511D40168804641F4EA
:101C500080710160FFF74CFB074604E0FFF748FB8B
:101C6000C01B022846D8D8F80000C005F6D5A068E9
:101C7000012815D00528D5F8900016D020F00100D5
:101C8000C5F89000D5F8900020F00400C5F8900049
:101C9000A06841F28838B8B1FFF72AFB07460EE08A
:101CA000D5F8900040F00100F0E740F00400C5F8DE
:101CB0009000F5E7FFF71CFBC11B41451AD8D5F88A
:101CC00090008007F6D50CE0FFF712FB074604E012
:101CD000FFF70EFBC11B41450CD8D5F890008007DB
:101CE000F6D41EB1A86D20F08050A865207880063B
:101CF00029D500E089E0606A0028D5F8980011D065
:101D000040F00100C5F89800FFF7F2FA064604E03B
:101D1000FFF7EEFA801B02287DD8D5F898008007DF
:101D2000F6D510E020F00100C5F89800FFF7E0FAC2
:101D3000064604E0FFF7DCFA801B02286BD8D5F8D2
:101D400098008007F6D4A06AC8B1A968C1F38101E0
:101D5000032968D00228286820F08070286019D0F4
:101D60002868000103D4E86820F00300E860E86810
:101D700007490840E860FFF7BBFA04464EE050E030
:101D8000001002400074000824040020007000408D
:101D9000FFFFEEFEFFF7ACFA064604E0FFF7A8FAF5
:101DA000801B022837D828688001F7D4206B54F8AC
:101DB0002C1F000110380843218A1C4A490802EBF5
:101DC0004151A26841EA02210843217D4FF07E4241
:101DD000490802EB41610843217B40EAC160E860A9
:101DE000286840F080702860E86840F08070E86003
:101DF000FFF77EFA044604E0FFF77AFA001B022898
:101E000009D828688001F7D50BE004E0FFF770FAE5
:101E1000001B022802D90320BDE8F883286880014E
:101E2000F4D40020F8E70120F6E700000000E0FF0E
:101E300010B5401EB0F1807F01D3012010BD4FF0DE
:101E4000E02460610F21601701F086FA0020A06194
:101E500007202061002010BD10B5040003D094F8C5
:101E6000710010B107E0012010BD002084F870005F
:101E7000204600F027F8242084F8710020680168CB
:101E800021F001010160204601F0B2FD0128EBD0F4
:101E9000606A10B1204601F019FD2068416821F404
:101EA000904141602068816821F02A0181602068AA
:101EB000016841F0010101602046BDE8104001F0D9
:101EC00069BD0000F0B52F4F066800222E4902239D
:101ED0000324072587B04FF09040BE4217D10E6E05
:101EE00046F480460E66096E02AE01F4804105910B
:101EF0006102CDE9001386E834006946FFF72CF94A
:101F0000002211462520FFF763FA252019E01F4F14
:101F1000BE421AD18E6D46F400368E65896D02AED2
:101F200001F4003105910C21CDE9001386E834005D
:101F30006946FFF711F9002211462620FFF748FAFB
:101F40002620FFF739FA07B0F0BD11488642FAD1D2
:101F5000886D40F480208865886D02AE00F4802092
:101F600005904FF44060CDE9000386E834006946EF
:101F70000848FFF7F1F8002211462720FFF728FA5A
:101F80002720DEE7003801400010024000440040F6
:101F900000480040000800482DE9F843044690F846
:101FA00071001F4616460D4620284BD1C5B1BEB163
:101FB00094F87000012845D0012084F870004FF09B
:101FC0000008C4F87480212084F87100FFF790F9AC
:101FD000A4F850608146A4F852604FF4805615E092
:101FE0000120BDE8F8838021204601F02BFED8B9FE
:101FF000A068B04201D12069C0B115F8010B216879
:102000000885B4F85200401EA4F85200B4F85200FB
:102010004B464FF0000200970028E4D14FF04001FA
:10202000204601F00FFE30B10320DAE735F8020B4D
:10203000C0F30800E3E7202084F8710084F8708082
:102040000020CEE70220CCE710B5FFF755F901F0EC
:10205000CDFB0648006803F0FBF901F0BBF801F086
:1020600053F9BDE8104002A001F07CBE240400201A
:1020700057656C636F6D6520746F20496F542D43F5
:102080006C75622C20546869732069732045564230
:102090002D4D3120426F6172642E0D0A0000000048
:1020A0002DE9F04117468846064600241DE0305DC4
:1020B000FEF77BF8C5B230194078FEF776F8C0B26B
:1020C000392D01D9373D00E0303DE9B2392801D939
:1020D000373800E03038C0B204EBD47240EA011067
:1020E00008EB6201A41C087024B2BC42DFDBBDE82F
:1020F000F081000070B501220B4D94022146284664
:10210000FFF7F1F80122D60231462846FFF7EBF837
:10211000002231462846FFF7E6F821462846BDE86A
:1021200070400022FFF7DFB80004004870B50A4C89
:10213000012291022046FFF7D6F84FF400650022F5
:1021400029462046FFF7CFF829462046BDE87040D3
:102150000122FFF7C8B800000004004870B5012252
:10216000064D940221462846FFF7BDF82146284631
:10217000BDE870400022FFF7B6B800000004004838
:1021800000EB8100006E00F0F84070478068C0F3FB
:102190008000704770B54FF0007401F0007394FA3E
:1021A000A4F4B4FA84F4E3404FF0F87494FAA4F57C
:1021B00001F0F871B5FA85F500EB830021FA05F519
:1021C0000726AE4094FAA4F44369B4FA84F4E140DB
:1021D000B3438A401343436170BD00EB8100016E3D
:1021E00021F000411143016670474218491E521EFA
:1021F000824202D922EA01007047884370470000FA
:1022000038B5054D0C4604992D6815B1009121464D
:10221000A847002038BD0000EC0400202DE9F04163
:102220001E000C46054604D0F02D05D31E48BDE81F
:10223000F0811D48401CFAE71C481D4900EB85074A
:10224000386C884202D01848001DF0E7082C02D3F1
:102250001548401DEBE7FDF719FF014615483864A6
:102260001548012200EB8500066468B200F01F03E8
:102270009A4043099B0003F1E023C3F800212207A1
:10228000120E002806DA00F00F0000F1E02080F8BE
:10229000142D03E000F1E02080F800240846FDF74B
:1022A000FDFE0020C3E7000000090002000000203E
:1022B000A96000085D610008C40A002010B521492A
:1022C00010200860204821490068086003F064FF7E
:1022D000040007D01EA001F045FD21461EA001F01C
:1022E00041FD27E003F0FAFE04F0D4FC040004D022
:1022F00017A001F037FD1FA01AE004F035FD04F02F
:10230000C5F9002817D103F053FF002813D104F0BA
:1023100051F8040004D00EA001F024FD1AA007E03B
:1023200004F0C4FA040007D009A001F01BFD1BA0B3
:1023300001F018FD204610BD04F012FFBDE810406A
:1023400003F0ECBE5C040020EC7E0008F0040020EA
:102350005B4552525D2000006F734D656D5379737C
:1023600074656D496E6974206572726F72202564A0
:102370000A0000006F735461736B496E69742065C5
:1023800072726F720A0000006F735175657565494E
:102390006E6974206572726F720A00006F735377F2
:1023A000546D72496E6974206572726F720A000012
:1023B0004268C1E9000242681160416070474268AA
:1023C000C1E9000242681160416070474268C1E99A
:1023D000000242681160416070474268C1E9000232
:1023E0004268116041607047D0E900121160D0E985
:1023F00000124A6000214160016070470068FFF7E9
:10240000D7BF70B505000C464FF000000CD0002C73
:102410000AD0284604F0BDF9002805D121462846F7
:10242000BDE8704003F0C4BC70BD03F051BD70B591
:102430000C4605000AD04CB104F0DCF9012807D0A5
:102440002146284603F062FD012801D0012070BD1D
:10245000002070BD2DE9F84FDFF898A00F46050069
:10246000DAF80040A04603D0502F01D9A80702D0C7
:10247000012000F05DB8FDF709FE8146EE1918E075
:10248000A068A542204401D8A64203D885420ED2B6
:1024900086420CD318A001F065FCA06832462044A7
:1024A00000902346294616A001F05CFC1BE0A046E4
:1024B000E468002CE4D13946284603F0A9FD90B128
:1024C000B7F5805F03D3284604F0C4F958B1DAF8B1
:1024D000001061B1C8F80C500020E8604846FDF7D4
:1024E000DDFD0020C5E74846FDF7D8FDC0E7CAF886
:1024F0000050F1E7E80400205B4552525D200000E7
:10250000706F6F6C205B25702C2030782578292027
:10251000636F6E666C696374207769746820706F8E
:102520006F6C205B25702C2030782578290A0000FC
:1025300018BCBDE8E08F000038B5050014D0FDF7E9
:10254000A5FD174902460024486888420FD110466D
:10255000FDF7A4FD134D144900232A4613A000944F
:10256000FFF74EFE284638BD0E48401E38BDD0E964
:1025700000131960D0E900134B6020F8064C0121CC
:1025800000F8081D00F108018482C0E9031481608D
:10259000406828601046FDF781FD002038BD00002E
:1025A000B8040020031D0002F8C3B2A16F735F7569
:1025B0006E73706563696669635F66696C65000068
:1025C0002DE9F8431C4F1D4D4FF000080F2801D393
:1025D0003C4616E01A4900EB4000096801EBC004D4
:1025E000FDF754FD06462078B0B1E06804F108011B
:1025F000884201D1608898B13046FDF74FFD0E4CFE
:1026000008342946002322460EA0CDF80080FFF7AB
:10261000F7FD2046BDE8F8833046FDF73FFDD7E7DC
:102620000748001DFFF7CBFE84F800803046FDF719
:1026300035FD0020EEE70000011D0002F8C3B2A145
:10264000B40400206F735F756E73706563696669AB
:10265000635F66696C6500002DE9F84300263D4D17
:10266000DFF8F48089460F2804D300232C462A463D
:10267000009666E0394900EB4000096801EBC004B0
:10268000FDF704FD0746207848B13548006850B191
:102690003846FDF703FD2F48001DBDE8F883384696
:1026A000FDF7FCFCE1E72F480568608840B121692F
:1026B000A9420BD1401C60803846FDF7EFFC46E094
:1026C000012060802561E888A082F5E7B9F1000F5C
:1026D0000ED02548008888B11E4C24A0641D01F04E
:1026E00041FB24A001F03EFB3846FDF7D7FC25E076
:1026F0003846FDF7D3FC1748C01CCEE7EC612069D3
:10270000E988C2888A4201D904F044FB4A4608217C
:1027100004F1080004F04EFC3846FDF7BFFC00F061
:1027200077F92879400612D5FDF7B0FCA98821F089
:102730004001A980FDF7B2FC064CA41D00232246EF
:102740000096414614A0FFF75BFD2046A5E7002058
:10275000A3E70000011D0002F8C3B2A1B4040020E9
:10276000F40400206C0400204C0400205B4552520D
:102770005D2000002121214C4F535F4552524E4FA6
:102780005F4D55585F50454E445F494E5F4C4F4337
:102790004B2121210A0000006F735F756E73706515
:1027A00063696669635F66696C6500002DE9F843DB
:1027B0002549804600EB4800096801EBC004FDF79D
:1027C00065FC0026214DDFF888900746B8F10F0F11
:1027D00008D2207830B11F486188026811B12069A1
:1027E00090420CD03846FDF759FC00232A46494652
:1027F00019A00096FFF704FD2846BDE8F883491E9E
:102800000904090C618003D03846FDF747FC19E044
:10281000C288A18A8A4201D004F0BCFAE06804F1BF
:1028200008018842F0D00121618028382061C188E8
:10283000A1820821C66104F0E3FB3846FDF72EFCB7
:1028400000F0E6F80020D8E7B4040020011D0002E3
:10285000F8C3B2A16C0400206F735F756E7370656E
:1028600063696669635F66696C6500002DE9F0471E
:102870000D4608985FEA020900F104018FB206D004
:102880004FF6FB71884205D92648BDE8F0872548F8
:102890000930FAE7E5B1D8B1DFF88C8005FB07F124
:1028A000D8F80000FFF7ADFD060014D0FDF7EEFBF1
:1028B0001E4A01465068904210D10846FDF7EEFBD3
:1028C0003146D8F80000FFF7B2FD1648401CDCE79F
:1028D00014480A30D9E71348401ED6E7D0E9002350
:1028E000A0F11C041A60D0E900235360E580278121
:1028F000012326600022A38022826582A281E281D8
:10290000A0F1080252601260406000600830406030
:1029100000600846FDF7C2FB61890020C9F800107D
:10292000B3E7000003060002F0040020C404002006
:1029300070B504460A2801D3204870BDFDF7A6FBF8
:102940001F49054604EB4400096800EBC40001EB95
:1029500080029088C0B1194C916902F11400E41C06
:10296000814213D1106A02F11C0188420ED1936A90
:1029700002F12400834209D1508A138A1844D38873
:10298000984208D0E41C01E00C4C641D2846FDF779
:1029900085FB204670BD00201468106090800848B8
:1029A000001DFFF713FD2846FDF778FB054821467B
:1029B0000068BDE87040FFF73ABD00000506000260
:1029C000C0040020F0040020F8B51C4615460E4651
:1029D000074603F0D5FD002806D100212B463246DC
:1029E0003846009403F014FDF8BD7FB582B01C4654
:1029F0000D46064604AA03F0DFFD002806D1032198
:102A000004AB2A463046009403F002FD06B070BDC8
:102A100010B5FDF73BFB044603F056FC0A49283885
:102A200048600968814202D00848008820B12046E9
:102A3000BDE81040FDF732BB2046FDF72FFBBDE897
:102A40001040FDF72EBB00006C0400204C04002059
:102A50000A464FF6FF7103F0CBBD00002DE9F843A5
:102A60001A4F1B4D4FF00008142801D33C4612E0CA
:102A70001849096801EB0014FDF708FB0646208899
:102A8000A0B1E06804F10801884213D03046FDF798
:102A900005FB0E4C08342946002322460EA0CDF833
:102AA0000080FFF7ADFB2046BDE8F8833046FDF718
:102AB000F5FADBE70748001DFFF78FFCA4F800805C
:102AC0003046FDF7EBFA0020EEE7000001070002B8
:102AD000F8C3B2A1CC0400206F735F756E7370658C
:102AE00063696669635F66696C6500002DE9F84398
:102AF0000026324FDFF8C8808946142804D300230B
:102B00003C463A46009650E02E49096801EB001415
:102B1000FDF7BCFA0546208838B1608848B1401EF0
:102B200060802846FDF7BAFA46E02846FDF7B6FA77
:102B3000E5E7B9F1000F09D02348006848B11F4C00
:102B400022A0241D01F00EF922A00BE01B4CE41C76
:102B500025E02948008840B1184C1CA0641D01F0F4
:102B600001F926A001F0FEF819E02D484A46082197
:102B7000076804F10800BC6104F01CFA2846FDF760
:102B80008DFAFFF745FF3879400615D5FDF77EFA37
:102B90000546B888094C20F04000B880A41D28469E
:102BA000FDF77CFA00232246009641461DA0FFF760
:102BB00027FB2046BDE8F8830020FBE70107000261
:102BC000F8C3B2A1CC040020F40400205B455252AB
:102BD0005D2000002121214C4F535F4552524E4F42
:102BE0005F53454D5F50454E445F494E54455252E8
:102BF0002121210A000000004C0400202121214C49
:102C00004F535F4552524E4F5F53454D5F50454EB7
:102C1000445F494E5F4C4F434B2121210A00000085
:102C20006C0400206F735F756E737065636966690D
:102C3000635F66696C6500002DE9F8432149224F06
:102C40001428096801EB001402D33846BDE8F88364
:102C5000FDF71CFA06462088DFF87080002588B151
:102C6000A0886188884215D13046FDF717FA164CC6
:102C70000023E41D22460095414615A0FFF7C0FA47
:102C80002046E3E73046FDF709FA00233C463A4682
:102C90000095F1E7E06804F1080290420BD040F89B
:102CA000105C0821283804F0ABF93046FDF7F6F93E
:102CB000FFF7AEFE04E0491C61803046FDF7EEF9F7
:102CC0000020C3E7CC04002001070002F8C3B2A132
:102CD0006F735F756E73706563696669635F66695C
:102CE0006C65000010B504F0BFF9040006D005A023
:102CF00001F038F805A001F035F801E0FDF7A0F982
:102D0000204610BD5B4552525D2000006F73546930
:102D1000636B5374617274206572726F720A000083
:102D200070B5044600F034F8002829D1174D20680A
:102D3000C0EBC000E96800EB400001EB8004FDF748
:102D4000A5F90646A08820F0020040F00400A0800B
:102D5000E18804F1280003F073FA03F0B5FA05F1F5
:102D6000200128384860EA695AB12A884AB90968B6
:102D7000814206D03046FDF791F903F037FC002080
:102D800070BD3046FDF78AF9F9E700004C040020D9
:102D90002DE9F05F0D465FEA00084FF0FF3B19D0C8
:102DA000DDB12869E0B12968E9B1AA8849481F2A3C
:102DB0000ED802D1484A91420AD14849484FE868A2
:102DC00009683A68891A491C88420FD941481D3060
:102DD00000F08CB83F48001DFAE73E48801EF7E738
:102DE0003C48801CF4E73B48401CF1E710B94FF425
:102DF0003470E8600821FFF7F8F9E860B0F5987FD3
:102E000002D23448C01CE3E7FDF740F906464FF014
:102E10000009344CBA4611E0A1F128070846FFF733
:102E2000E3FA304807F128010838FFF7C1FAF968DA
:102E3000DAF80000FFF7FBFAC7F80C906168A142CE
:102E4000EAD1284908394868884202D1214C0E3419
:102E50003AE0A0F12804FFF7C7FA3046FDF71EF963
:102E600027690822E968DAF80000FFF7DEFA0600B1
:102E700020D002463846E96804F07AF92060A86854
:102E8000E6602062E868C4F81890C4F81C9002213B
:102E9000A060A180A988E1802968C4F83CB0C4F88A
:102EA000489061612969C4F8509061620020C8F8B7
:102EB00000708DE7FDF7EAF806460A4804F128019C
:102EC0000838FFF775FA084C3046FDF7E7F820465A
:102ED0007EE700000302000219610008F07E00088E
:102EE000EC7E0008840400200002000330BCBDE832
:102EF000C09F000070B505461648006808B1164826
:102F000070BD1648008808B1154870BDEDB1FDF7D9
:102F1000BDF8124C064620342068283003F074F9BE
:102F20002068818821F0040181802946206803F00F
:102F300057FE2068818841F0200181803046FDF7EE
:102F4000ADF8FFF765FD002070BDBDE8704000F0F2
:102F5000C1B80000F40400200D0200034C0400205E
:102F60000E0200022DE9F047494D07464FF0FF3AA7
:102F70006869874202D14748BDE8F087A86987425F
:102F800002D144480D30F7E72869874202D341480F
:102F90000D38F1E7FDF77AF88046C7EBC700E9681E
:102FA00000EB400001EB8004A688F00706D0394C06
:102FB00040460A3CFDF772F82046DDE7F0064FF088
:102FC000000903D5288808B1A5F80090700708D536
:102FD00004F1280003F018F9A08820F00400A08074
:102FE00007E042F20800064203D004F12800FFF790
:102FF000FBF916F0600F02D0204604F07BF8A088A1
:1030000020F0020040F00100A080C4F83CA0C4F809
:10301000489003F059F91E4E4FF0010A2036283827
:1030200070602079C0061FD504F1280106F1180050
:10303000FFF7E4F92869E968C0EBC00000EB400045
:1030400001EB8000306007613168A08888803068BB
:10305000E168C160616A4162A4F804A04046FDF7DE
:103060001DF803F0C3FA11E00948A4F804A004F124
:1030700028013030FFF79CF90748E1680068FFF746
:10308000D6F94046C4F80C90FDF708F8002073E725
:103090004C04002014020002EC7E00080C4910B51C
:1030A0000A69904201D3002010BDC0EBC000C9687E
:1030B00000EB400001EB8004FCF7E8FF2179C90731
:1030C00002D0FCF7EBFFEEE7FCF7E8FF606A10BD0B
:1030D0004C04002070B5194CA4F12002206812693C
:1030E0000169914201D3164870BD0079400701D4AF
:1030F000002070BDFCF7CAFF05462068C08803F0B9
:10310000D1F8012813D920682830FFF76DF920681D
:10311000818841F0040181802068C188283003F053
:103120008FF82846FCF7BAFFFFF772FCE0E7284665
:10313000FCF7B4FF0248093070BD00006C040020A9
:10314000070200020149D1E900017047A0040020F4
:1031500030B51A4887B018490024C0E900148460CB
:103160000425C460C0E9044501218461C0E9074128
:10317000C0E90941C462046344638463C463FDF726
:1031800047FE18B14C210EA000F0EAFD1048009057
:103190000620CDE901047F200594CDE903056946A9
:1031A0000648FDF731FC002803D0592104A000F0A7
:1031B000D7FD07B030BD000000000450E406002039
:1031C0002E2E2F5372632F6164632E630000000064
:1031D000001060322DE9F043474887B0C16C41F0E0
:1031E0000401C164C16C01F004010591C16C41F09E
:1031F0008001C164C16C01F080010591C16C41F096
:103200000101C164C16C01F001010591C16C41F083
:103210000201C164C06C394F00F002004FF4005449
:103220000590002221463846FEF75DF84FF09049A0
:10323000002220214846FEF756F8DFF8C4804FF4FC
:103240004266002231464046FEF74DF80125CDE9A1
:10325000004500240294694638460394FDF77CFF3C
:103260000F2000902748CDE9010469463846FDF754
:1032700073FF20200090CDE901546946484603942D
:10328000FDF76AFF4020CDE90004694648460294F4
:10329000FDF762FF0096CDE901546946404603946C
:1032A000FDF75AFFE8028DE8310069464846FDF710
:1032B00053FF002211460620FEF78AF80620FEF78B
:1032C0007BF8002211460720FEF782F80720FEF760
:1032D00073F8002211460820FEF77AF80820FEF75E
:1032E0006BF8002211460920FEF772F80920FEF75C
:1032F00063F807B0BDE8F083001002400008004802
:1033000000040048000011100E4810B50C4901607F
:103310004FF4E1314160002181600C22C160C0E9BD
:1033200004128161C16101624162FEF795FD0028CE
:1033300005D0BDE81040462103A000F011BD10BD2E
:10334000003801404C0700202E2E2F5372632F753A
:10335000736172742E6300000907090E002806DAF3
:1033600000F00F0000F1E02080F8141D704700F11C
:10337000E02080F80014704710B5FCF740FF08B15A
:10338000002010BD4FF0FF3010BD70B500240021AB
:1033900004F1B00000F04FF90021084600F04BF9AD
:1033A0000021102000F047F900250121002000F045
:1033B00042F96D1CEDB2802DF7D3641CE4B2082CE9
:1033C000E5D370BD10B5C820FDF7AAFE0021AE20E0
:1033D00000F031F90021402000F02DF90021B0204B
:1033E00000F029F90021C82000F025F900218120F2
:1033F00000F021F90021FF2000F01DF90021A1209B
:1034000000F019F90021A62000F015F90021A820EC
:1034100000F011F900211F2000F00DF90021D32048
:1034200000F009F90021084600F005F90021D52037
:1034300000F001F90021F02000F0FDF80021D92072
:1034400000F0F9F80021222000F0F5F80021DA2040
:1034500000F0F1F80021022000F0EDF80021DB205F
:1034600000F0E9F80021492000F0E5F800218D2066
:1034700000F0E1F80021142000F0DDF80021AF2079
:1034800000F0D9F8BDE81040FFF77FBF10B50A463D
:103490000446002102F1B00000F0CDF8102040EA0F
:1034A0001410002100F0C7F804F00F00BDE8104030
:1034B000002100F0C0B800002DE9F04115460E468D
:1034C0000746FFF7E3FF0F48002400EB85150121B5
:1034D000285D00F0B0F8641CE4B2102CF7D3761C21
:1034E000F1B23846FFF7D2FF00242819012190F8E5
:1034F000200000F0A0F8641CE4B2102CF5D3BDE865
:10350000F0810000F80400202DE9F041203A002469
:103510000D468046D6B27F2803D900208D1C8046F8
:10352000EDB2102B294610D0FFF7B0FF164906EB7D
:10353000460001EB40050121285D00F07CF8641C89
:10354000E4B2062CF7D3BDE8F081FFF79FFF0F4FE1
:1035500004EB06100121385C00F06DF8641CE4B245
:10356000082CF5D36D1CE9B24046FFF78FFF00240D
:1035700004EB061038440121007A00F05CF8641C6A
:10358000E4B2082CF4D3DEE75C740008847600080B
:103590002DE9F05F0026DDF828901D4692468B4607
:1035A000804634464FEA590723E0281B401EC1B22B
:1035B0000A2002F091FBBAFBF0F00A21B0FBF1F215
:1035C00001FB120026B9691E8C4201DA38B10126CE
:1035D0003030C2B207FB0480C0B24B4604E007FBA8
:1035E0000480C0B24B4620225946FFF78DFF641C71
:1035F000E4B2AC42D9D300F000B830BCBDE8C09F03
:103600002DE9F041984617460E46044600250DE088
:10361000434631462046FFF777FF0834E4B2782C62
:1036200002D90024B61CF6B26D1CEDB27A5D002AF8
:10363000EED1BDE8F081C0B209B100F07ABB00F074
:1036400061BB00002DE9F041444C05468846E06826
:103650000026810728680DD0E16801F0030181424E
:1036600016D1A8B1E0686968C0F30210401C884216
:103670000ED120E0012804D0022805D0032807D16C
:1036800008E02168890701E021684905002907DB76
:1036900001265FE02168890302D421684903F5E728
:1036A000E1686A686FF00F0321F0730103EB021207
:1036B00011430143E160206820F080602060FDF745
:1036C00017FE074605E000BFFDF712FEC01B0228EB
:1036D00037D820680001F7D4B8F1000F18D0B8F13E
:1036E000010F1DD0287D4FF07E41400801EB406066
:1036F000A96840EA01202169194A11400843206164
:10370000206840F080602060FDF7F2FD07461AE077
:10371000A868297B000240EAC1602169114AECE7F0
:10372000288A1149400801EB4050A96840EA01206D
:1037300021690E4AE1E700BFFDF7DAFDC01B022850
:1037400001D9032606E020680001F5D52069A969A2
:10375000084320613046BDE8F081000000100240BF
:10376000FF80FFF9FF80FF070000E0FFFF809FFF61
:10377000F8B51C4D06460024A86DC00002D5FDF723
:103780008BFE0DE0A86D40F08050A865A86D00F09C
:1037900080500090FDF780FEA96D21F08051A96551
:1037A000B0F5007F04D0802E07D94FF003040AE063
:1037B000802E08D9A02E01D804E001D1022402E015
:1037C000702E00D101240848016821F0070121432F
:1037D0000160006800F00700A04201D00120F8BDA0
:1037E0000020F8BD0010024000200240254810B51E
:1037F000016EAEB041F001010166016E01F0010100
:103800002D91816D41F080518165806D012100F025
:1038100080502D900804CDE90010022003240A9066
:10382000CDE90B4110210D910721CDE90E1010902B
:103830006846FEF7A3F800B1FEE70F20CDE92804A3
:1038400000242A942B94042128A82C94FDF78AFFA5
:1038500000B1FEE744F247001B9411904FF0405036
:10386000259019941A941D9411A8FDF71DFE00B11E
:10387000FEE74FF40070FDF7DDFD002800D0FEE705
:103880002EB010BD001002400D48016841F47001D7
:1038900001600C48016841F0010101600021816074
:1038A0000268094B1A4002608214C260026822F466
:1038B0008022026081610249C0038039086070473C
:1038C00088ED00E000100240FFFFF6EA90F82410B7
:1038D000C90706D001684A68836A22F400321A4395
:1038E0004A6090F82410890706D501684A68C36ABF
:1038F00022F480321A434A6090F82410490706D512
:1039000001684A68036B22F480221A434A6090F8E7
:103910002410090706D501684A68436B22F4004267
:103920001A434A6090F82410C90606D501688A68CF
:10393000836B22F480521A438A6090F8241089061F
:1039400006D501688A68C36B22F400521A438A6064
:1039500090F82410490611D501684A68036C22F4D6
:1039600080121A434A60016CB1F5801F06D10168CC
:103970004A68436C22F4C0021A434A6090F824104B
:10398000090606D501684A68806C22F400220243C9
:103990004A607047F8B5002604464667FDF7A8FC64
:1039A0000546206800686FF07E47000708D52B4663
:1039B00000224FF400112046009700F043F960B94F
:1039C0002068006840070AD52B4600224FF480018A
:1039D0002046009700F036F908B10320F8BD2020FA
:1039E00084F8710084F8720084F870600020F8BDDB
:1039F0002DE9F0410446016880682369E6691843AF
:103A000063691025002733431843844A0B68844EAA
:103A1000334003430B6020684168E36821F4405160
:103A2000194341602168A069914201D0236A18437B
:103A30008B6823F4306303438B607A4B21687A48A8
:103A400099420DD1D0F8880010F0030006D001286B
:103A500039D0022835D0032838D136E0012535E0A9
:103A6000724B99420BD1D0F8880010F00C0026D090
:103A7000042828D0082824D00C2827D125E06C4B16
:103A800099420BD1D0F8880010F0300017D01028E0
:103A900019D0202815D0302818D116E0914215D120
:103AA000D0F8880010F4406009D0B0F5806F0AD0DB
:103AB000B0F5006F05D0B0F5406F07D105E00025E7
:103AC00004E0022502E0042500E00825594B002609
:103AD0004FF4004091423DD135B1022D07D0042D65
:103AE00007D0082D10D107E0FDF7C6FE03E0184609
:103AF00002E0FDF7E1FEA8B3626802EB42018142F9
:103B000002D8B0EB023F01D9012774E0DFF8288129
:103B10005DB1022D0CD0042D13D0082DF4D1500826
:103B20002905401846F1000105E0FDF7A5FE0AE071
:103B300050084249F5E70023FCF703FBA0F540716C
:103B400055E0FDF7B9FE6268010E0302500818182F
:103B50007141F0E7E1694FF6EF7881422ED1092DEE
:103B6000D2D200E047E0DFE805F006091F05220594
:103B700005052500C8E7FDF77FFE01E0FDF78CFE97
:103B80004100606801EB5001B1FBF0F080B2A0F1A0
:103B900010014145B8D84FF6F0710140C0F3420022
:103BA00001432068C16026E025496068EAE7FDF727
:103BB00083FEE5E74FF480316068E3E7092DA3D287
:103BC000DFE805F006091E052205050525009BE72F
:103BD000FDF752FE01E0FDF75FFE0146606801EB74
:103BE000500100BFB1FBF0F080B2A0F110014145DF
:103BF0008AD82168C860266638466666BDE8F081C6
:103C0000606803EB5001EDE7FDF756FEE5E76168FC
:103C100000EB5100B0FBF1F0E6E70000008000404F
:103C2000F369FFEF003801400010024000440040FB
:103C3000004800400024F400FFFC0F00000024F4C2
:103C40000048E8012DE9F041984617460E46044623
:103C5000069D1DE0681C1BD02DB1FDF749FBA0EBB4
:103C60000800A84214D92068016821F4D0710160CD
:103C70002068816821F001018160202084F87100B2
:103C800084F87200002084F870000320BDE8F08101
:103C90002068C06936EA000004D00020B842D9D0BC
:103CA0000020F3E70120F9E72DE9F041144F044625
:103CB0004FF48066002231463846FDF714FB00259C
:103CC0004FF4006804F08000802816D0002241469E
:103CD0003846FDF708FB6006040E012231463846DF
:103CE000FDF701FB002231463846FDF7FCFA6D1C5A
:103CF000EDB2082DE6D3BDE8F0810122E7E7000030
:103D00000004004810B50446FEF7F4F97820FFF7E8
:103D1000CBFFFEF723FA0020FFF7C6FFFEF71EFADF
:103D20002046FFF7C1FFFEF719FABDE81040FEF785
:103D3000FDB910B50446FEF7DDF97820FFF7B4FFB2
:103D4000FEF70CFA4020FFF7AFFFFEF707FA204618
:103D5000FFF7AAFFFEF702FABDE81040FEF7E6B94A
:103D6000FEE700000FB4054B10B503A9044A029802
:103D700000F044F810BC5DF814FB00007D5400080E
:103D8000E00600200FB41CB50246002007AC002955
:103D90000BD0491ECDE90021054B6A462146069805
:103DA00000F02CF8009A002111701CBC5DF814FB87
:103DB000654200080FB4084B10B504A902AA039885
:103DC00000F01CF8044602A9002000F056FA204634
:103DD00010BC5DF814FB00007B42000802E008C83C
:103DE000121F08C1002AFAD170477047002001E075
:103DF00001C1121F002AFBD1704700002DE9FF4FBF
:103E00008DB00F460546002606E025280BD0DDE9DB
:103E10000F1290476D1C761C28780028F5D111B040
:103E2000304600F0F3B90024A246A1460122EC4935
:103E300000E0044315F8013F203B02FA03F008427A
:103E4000F7D128782A2810D06FF02F022878A0F117
:103E50003001092914D80AEB8A0102EB410144F030
:103E6000020400EB010A6D1CF0E701CF5FEA000AD3
:103E700003D544F40054CAF1000A44F002046D1C56
:103E800028782E2817D115F8010F44F004042A28A9
:103E90000ED06FF02F022878A0F1300109290AD83E
:103EA00009EB890102EB410100EB01096D1CF2E70E
:103EB00057F8049B6D1C28786C280FD006DC4C2822
:103EC00017D068280DD06A2814D104E0742810D0C7
:103ED0007A280FD10DE044F400140AE044F4801471
:103EE00001E044F440146978814202D104F5801461
:103EF0006D1C6D1C2A786E2A1FD00CDC632A31D011
:103F000004DC002A8BD0582A11D1A3E0642A68D09F
:103F1000692A0CD165E0732A2ED004DC6F2A73D095
:103F2000702A04D19BE0752A6FD0782A6ED0104693
:103F3000DDE90F129047761C50E1C4F302500228CD
:103F400006D0032809D0042801CF09D0066045E136
:103F500001CFF117C0E9006140E101CF06803DE1EA
:103F600006703BE117F8040B8DF8000000208DF877
:103F70000100EB46012003E057F804BB4FF0FF308F
:103F800061074FF0000102D40DE008F101018846FD
:103F900049450FDA8045F8DB1BF808100029F4D1F9
:103FA00008E008F1010188468142FADB1BF808109D
:103FB0000029F6D1DDE90F23AAEB0800814621464E
:103FC00000F039F9304400EB080604E0DDE90F1297
:103FD0001BF8010B9047B8F10108F7D2214648467B
:103FE000F7E00A21C4F302534FF0000B0891022BB3
:103FF00004D001CFC117032B09D00AE0FF1D27F021
:104000000707F7E8020108E032E01FE020E000B215
:10401000C117042B01D140B2C117031E71F1000377
:1040200007DA4FF0000CD0EB0C006CEB01012D23F4
:1040300002E0230504D52B238DF82430012303E06F
:10404000E30701D02023F7E7984658E00A2110E063
:1040500010210EE010204FF0000B08900CE0102112
:104060004FF0000B44F004044FF00809089103E0FE
:1040700008214FF0000B0891C4F30253022B04D027
:1040800001CF0021032B06D006E0FF1D27F0070714
:10409000F7E8020103E080B2042B00D1C0B24FF078
:1040A000000823072BD5702A07D0DDF820C08CF03C
:1040B000100C5CEA0B0C05D00EE040238DF8243088
:1040C000012308E050EA010306D030238DF82430A4
:1040D0008DF8252002239846DDF820C08CF0080CCE
:1040E0005CEA0B0C0BD150EA010301D1630706D542
:1040F00030238DF824304FF00108A9F10109582A26
:1041000004D038A20B9208AA0A920BE03AA2F9E76F
:104110005B46089AFCF715F80B9B9B5C0A9A521EAB
:104120000A92137050EA0102F2D10A98ADEB000036
:1041300000F1200B600702D524F4803401E04FF039
:104140000109D94502DDA9EB0B0000E0002000EBDE
:104150000B0141440890AAEB010AE00306D4DDE913
:104160000F232146504600F066F806444FF0000940
:1041700008E009A911F80900DDE90F12904709F1DB
:104180000109761CC145F4DBE0030CD5DDE90F2302
:104190002146504600F04FF8064404E0DDE90F12D6
:1041A00030209047761C0899481E08900029F5DCBD
:1041B00008E00A980A990078491C0A91DDE90F1273
:1041C0009047761CBBF10001ABF1010BF1DC2146FD
:1041D0005046DDE90F2300F01CF806446D1C1BE679
:1041E00009280100303132333435363738396162CD
:1041F0006364656600000000303132333435363791
:1042000038394142434445460000000030BCBDE817
:10421000C08F2DE9F041044600251E46174688044C
:1042200004D405E039462020B0476D1C641EF9D542
:104230002846BDE8F0812DE9F041044600251E46E0
:104240009046C80301D5302700E02027880404D514
:1042500005E041463846B0476D1C641EF9D5284636
:10426000BDE8F0814A68002A06D00A68531C0B603A
:1042700010704868401E486070470A68531C0B6005
:1042800010707047F0B587B00E4607461C460C9D6F
:10429000142168460592FBF7A7FF05A800900120AE
:1042A00001906A4631463846CDE9034500F002F8F0
:1042B00007B0F0BD2DE9F0478CB014008A460646E1
:1042C0004FF0FF3711D086B1202104A8FBF78CFFF7
:1042D000142221460DF1100805A8FBF76CFFE068D9
:1042E00038B1206928B1056804E038460CB0BDE853
:1042F000F0873D4600F0FEF80146D4E90302CDE91F
:104300000202CDE9006540F22313224A22A0FFF702
:1043100029FD2B4DB9463946A869FEF79DF9494656
:104320006869FEF799F904A800F06CFA0122514679
:10433000304600F039FE6869FEF738FAE96B286903
:10434000FEF7D4FB074649466869FEF785F904A8DD
:1043500000F068FA6869FEF729FAA869FEF726FAFC
:10436000022003F02FF867B100F0C4F8CDE9007621
:1043700001464FF49C73074A1248FFF7F3FC484686
:10438000B4E7142208F104012046FBF714FF0020D3
:10439000ACE700007A7D00085B256C755D5B2573DA
:1043A0003A25645D5B495D636D643A2573206C65F5
:1043B0006E2025642C2025702C25640A0000000046
:1043C00080060020587E000870B500241A4D4FF476
:1043D0007A7606E0012002F0F5FF3046FEF78AFD0E
:1043E000641C2868FEF75AFE08B10A2CF2DB286824
:1043F000FEF754FE60B12868FEF7B4FD40B100F04E
:1044000079F8014640F263330C4A0DA0FFF7AAFC8D
:1044100000F0ECFD084800F051FB40B100F06AF8F4
:10442000014640F26A33054A10A0FFF79BFCBDE845
:10443000704000F09DB9000080060020C47D000897
:104440005B256C755D5B25733A25645D5B495D6139
:10445000745F726563765F7461736B2064656C650D
:104460007465206661696C6564210A005B256C7562
:104470005D5B25733A25645D5B495D61745F7374B0
:10448000727563745F6465696E6974206661696CD6
:104490006564210A00000000014602480068FDF73B
:1044A000C6BF0000F004002000487047AC1B00208D
:1044B00070B50F4C4FF0FF35206C78B1294660691C
:1044C000FEF7CAF8A06B78B1C06968B100F012F8C5
:1044D000A16B8969814203D8642505E0284670BD37
:1044E0000D1A4FF47A7045436069FEF75FF9F5E7FE
:1044F0008006002010B5FEF725FE4FF47A71B0FB60
:10450000F1F010BD0C4910B50C6B4A6B0B49002043
:104510000823C968012C06D007E000BF03EB401454
:10452000145914B1401C8142F8D8814203D903EBDD
:1045300040130121D15010BD80060020AC1B00208B
:104540002DE9F041184F0E468046BC6B002C29D057
:10455000E2690AB1904718B1606838B100251EE0E1
:104560002046BDE8F041002100F05CBA3869BDE8A2
:10457000F041FEF761BB606850F8251071B140460C
:10458000FBF73DFE50B1206930B1636923B11EB124
:104590003246414602F0ABFEE560E7E76D1CA068DD
:1045A000A842E8D8BDE8F081800600201CB50028AC
:1045B0001ED0014624222948FBF7FDFDFFF79AFF94
:1045C0000146264840F2333302690068CDE9000213
:1045D000234A24A0FFF7C6FB304800F037FB78B130
:1045E000FFF788FF01464FF44E731D4A2CA030E0C0
:1045F000FFF780FF014640F22D33194A33A028E02F
:1046000000F0B6F800F006FD48B1FFF773FF014671
:1046100040F23F33124A38A0FFF7A4FB0DE000F050
:1046200041FE78B1FFF766FF014640F245330C4A80
:104630003BA0FFF797FB00F0D9FCBDE81C401748F2
:1046400000F03CBAFFF756FF0146054A40F24B33F3
:104650003EA002B0BDE81040FFF784BBAC1B0020B9
:104660004B7D00085B256C755D5B25733A25645DA9
:104670005B495D436F6E66696720257328627566C6
:1046800066657220746F74616C20697320256C7587
:10469000292E2E2E2E2E2E0A0A0000008006002023
:1046A0005B256C755D5B25733A25645D5B495D70C8
:1046B0007265706172652041542073747275637401
:1046C000206661696C6564210A0000005B256C75D9
:1046D0005D5B25733A25645D5B495D436F6E66697A
:1046E00067206973204E554C4C2C206661696C65BF
:1046F0006421210A0A0000005B256C755D5B25734F
:104700003A25645D5B495D61745F75736172745FC6
:10471000696E6974206661696C6564210A00000035
:104720005B256C755D5B25733A25645D5B495D6354
:1047300072656174655F61745F726563765F7461F1
:10474000736B206661696C6564210A005B256C757A
:104750005D5B25733A25645D5B495D436F6E6669F9
:104760006720636F6D706C65746521210A0A000013
:1047700004490020C1F82C014FF496710148FBF761
:1047800033BD0000D01B00203EB5FFF78DFE1A4957
:104790000968CA69194BD2439506194C4FF00002BB
:1047A00010D4898C1B6A256959552169491C2161DE
:1047B000A369994201D1012323700069884200D87E
:1047C00022613EBDC869C043C006FAD41020086209
:1047D00020696061A169CDE90010A061029298682A
:1047E00000230C226946FEF700F90028E9D0E068B2
:1047F000401CE0603EBD0000B408002080060020A0
:1048000004040020064A0023916B036011B99063F1
:10481000704711460A68002AFBD108607047000003
:1048200080060020084A916B884202D10868906394
:1048300070470A6804E0824202D10068086070474D
:10484000002AF8D1704700008006002070B50546A8
:10485000846B06E02068A863E06910B12046FFF78A
:104860001BFE002CF6D170BD70B50546014605480B
:104870000068FDF7C6FD040002D02946FBF7B4FC32
:10488000204670BDF00400202DE9F0411D4617467A
:10489000060007D035B10F48D0F82C21052A01D0E9
:1048A000272903DB4FF0FF30BDE8F081C2EB021394
:1048B000521CC0F82C2100EB83040A4631462046E6
:1048C000FBF779FC3046FBF7ACFCA062C4E90C575F
:1048D0000020E9E7D01B0020F0B5314C87B00C2058
:1048E000A66A4FF0FF370590FFF7E2FDA568034683
:1048F00005AA02A92846FEF767F80028F4D1049813
:10490000012817D039466069FDF7A6FE00F09EF831
:104910006069FDF74BFF206C00B180470498A0B19F
:10492000FFF7E8FD014640F212231E4A1EA0FFF7E2
:1049300019FAD9E7FFF7DEFD014640F20323194AD1
:1049400023A0FFF70FFA07B0F0BD2A4801693046EF
:10495000FBF74AFC02A9304602F04CFC0500C3D02C
:10496000FFF7C8FDCDE90056014640F21D230D4A70
:1049700021A0FFF7F7F92946304600F011FC002886
:10498000B2DC39466069FDF767FE00F05FF8294642
:104990003046FFF7D5FD6069FDF708FFA4E700008A
:1049A00080060020977D00085B256C755D5B257394
:1049B0003A25645D5B495D61742072656376206DA4
:1049C00073672073656E7420646F6E650A00000063
:1049D0005B256C755D5B25733A25645D5B495D61A4
:1049E000742072656376207461736B2071756974CD
:1049F0000A000000AC1B00205B256C755D5B257315
:104A00003A25645D5B445D72656376206C656E205B
:104A10003D20256C7520627566203D202573200A97
:104A20000000000010B5084CA26B824202D1016860
:104A3000A16302E009B102680A60FFF72DFDA069D9
:104A4000BDE81040FDF7B2BE8006002070B50F48EB
:104A50000025846B16E02668E06988B1FFF74AFDFF
:104A6000A16988420CD3FFF745FD0146BB23084AE4
:104A700008A0FFF777F929462046FFF7D3FF00E0AB
:104A800025463446002CE6D170BD0000800600208B
:104A9000537D00085B256C755D5B25733A25645D6D
:104AA0005B495D676574207265637620646174613B
:104AB0002074696D656F75740A00000070B504009C
:104AC0004FF000064FF0FF3561D029466069FDF7D1
:104AD000C3FD2046FFF7BAFE6069FDF767FE606818
:104AE000FDF7BCFF48B1FFF705FD014640F2D923B1
:104AF0002C4A2DA0FFF736F92E466069FDF760FDC0
:104B000048B1FFF7F7FC014640F2DF23254A31A008
:104B1000FFF728F92E462069FDF7A0FF48B1FFF7FF
:104B2000E9FC014640F2E5231E4A35A0FFF71AF9D9
:104B30002E46207F002518B1A069FDF741FD25779D
:104B4000207B18B1A068FDF7F3FE2573206A10B131
:104B5000FFF7A2FC2562606A10B1FFF79DFC656259
:104B6000A06A10B1FFF798FCA562E06A10B1FFF7E8
:104B700093FCE562606B10B1FFF78EFC6563A56383
:104B800025634FF6FF70E5632060304670BDFFF788
:104B9000B1FC014640F2CF23024A24A0FFF7E2F81D
:104BA000284670BDB37D00085B256C755D5B257381
:104BB0003A25645D5B495D64656C6574652061746C
:104BC0002E726563765F73656D206661696C6564DE
:104BD000210A00005B256C755D5B25733A25645DD9
:104BE0005B495D64656C6574652061742E636D64FA
:104BF0005F6D7578206661696C6564210A0000004C
:104C00005B256C755D5B25733A25645D5B495D646E
:104C1000656C6574652061742E726573705F736571
:104C20006D206661696C6564210A00005B256C7506
:104C30005D5B25733A25645D5B495D696E766169EC
:104C40006C6420706172616D210A0000F8B5040087
:104C50004FF0FF3713D00C200090002304F108021E
:104C6000202165A0FDF702FE88B1FFF743FC014655
:104C70004FF41673634A64A0FFF774F8BAE0FFF7C5
:104C800039FC014640F251235E4A69A0F4E7012550
:104C90002573211D0020FDF7DBFE002648B1FFF73C
:104CA00029FC014640F26123564A69A0FFF75AF8F1
:104CB00094E004F11400FDF73FFC28B1FFF71AFC63
:104CC00001464FF41A7309E004F11800FDF734FCB3
:104CD00048B1FFF70FFC014640F26F23494A67A035
:104CE000FFF740F877E0257704F110010020FDF789
:104CF000AFFE48B1FFF7FEFB014640F27723414A81
:104D000068A0FFF72FF863E0704D2869FFF7ACFD4E
:104D10002062E8B12869FFF7A7FD606210B3286937
:104D2000FFF7A2FDA06238B32869FFF79DFDE0629E
:104D300000282BD0E8684001FFF796FD606300284B
:104D40002ED0A663E8692063286AE0630020F8BDDE
:104D5000FFF7D0FB014640F27E232A4A5CA0FFF712
:104D600001F832E0FFF7C6FB014640F28D23254AE9
:104D700061A0FEF7F7FF25E0FFF7BCFB01464FF40B
:104D80002573204A66A0FEF7EDFF18E0FFF7B2FB9F
:104D9000014640F29A231B4A6BA0FEF7E3FF0BE0AB
:104DA000FFF7A8FB014640F2A123164A71A0FEF7C7
:104DB000D9FFA06AFFF770FBE06AFFF76DFB606A3E
:104DC000FFF76AFB206AFFF767FB2069FDF746FEE5
:104DD0006069FDF7F5FB6068FDF740FE207F18B1C4
:104DE000A069FDF7EDFB2677207B18B1A068FDF7E1
:104DF0009FFD26733846F8BD7265637651756575FB
:104E000065000000A47D00085B256C755D5B257363
:104E10003A25645D5B495D696E69742072656376ED
:104E20005175657565206661696C6564210A0000CD
:104E30005B256C755D5B25733A25645D5B495D6937
:104E40006E7661696C6420706172616D210A000088
:104E50005B256C755D5B25733A25645D5B495D6917
:104E60006E69742061745F726563765F73656D202F
:104E70006661696C6564210A000000005B256C7541
:104E80005D5B25733A25645D5B495D696E697420DD
:104E9000636D645F6D7578206661696C6564210A75
:104EA000000000005B256C755D5B25733A25645D31
:104EB0005B495D696E697420726573705F73656DBF
:104EC000206661696C6564210A000000AC1B00204B
:104ED0005B256C755D5B25733A25645D5B495D6D93
:104EE000616C6C6F6320726563765F6275662066C5
:104EF00061696C6564210A005B256C755D5B2573D7
:104F00003A25645D5B495D6D616C6C6F6320636D18
:104F10006472657370206661696C6564210A0000C3
:104F20005B256C755D5B25733A25645D5B495D6D42
:104F3000616C6C6F63207573657264617461206667
:104F400061696C6564210A005B256C755D5B257386
:104F50003A25645D5B495D6D616C6C6F63207361C4
:104F600076656464617461206661696C6564210AB8
:104F7000000000005B256C755D5B25733A25645D60
:104F80005B495D6D616C6C6F6320666F722061744C
:104F9000206C696E6B696420617272617920666150
:104FA000696C6564210A00002DE9F04115460E4642
:104FB0008046FFF779FAB2B204464FF6FF7687696A
:104FC000334641460848FCF7E7FF012D0AD1A069A6
:104FD000FBF727F933463946BDE8F04182B2024873
:104FE000FCF7DABFBDE8F081B4080020084801688A
:104FF0000A6822F001020A6001680A6822F01002C1
:105000000A600068016821F020010160704700001B
:10501000B4080020F8B5204CFFF746FA41681F4D50
:10502000012904D0022906D003290CD107E01C492C
:105030006960252106E01B496960262102E01A49C2
:1050400069602721A9606968216080680026C4E939
:105050000106E6600C202661C4E905062046FCF73F
:10506000FBFE18B17E2111A0FEF77AFE21684020D8
:10507000086200220096114B1146A868FDF7CEF891
:105080002068016841F0100101602068016841F06A
:10509000200101600020F8BDB408002004040020B5
:1050A0000038014000440040004800402E2E5C5370
:1050B00072635C61745F68616C2E630089470008ED
:1050C0002DE9F0438BB00E460746984691464FF0C7
:1050D000FF35202101A8FBF787F8012003902CA0C1
:1050E00009902C4C09A802902946A069FDF7B4FA52
:1050F00029466069FDF7B0FA01A8FFF783FB38463F
:10510000FBF78FF8014601223846FFF74DFF606933
:10511000FDF74CFBC8212069FDF7E8FC29466069D2
:10512000FDF79AFA01A80996FFF77CFB01A8FFF7A3
:1051300069FB002241464846FFF736FF6069FDF7EC
:1051400035FBE16B2069FDF7D1FC06462946606915
:10515000FDF782FA01A8FFF765FB6069FDF726FB02
:10516000A069FDF723FB022002F02CF96EB1FFF7D6
:10517000C1F901464FF4BB73074A08480096FEF791
:10518000F1FD28460BB0BDE8F0834046FAE7000089
:105190003E000000800600208E7D0008A87E0008EA
:1051A0002DE9F0410E4607460025104C0AE000BFED
:1051B000C5EB051004EB800138460B6B8A6A9847F3
:1051C00038B16D1CD4F82C01A842F1DC0020BDE8F8
:1051D000F081C5EB051004EB8000436B1BB1806BC5
:1051E0003246394698473046F1E70000D01B002090
:1051F00000B587B00020ADF8040006A004900B486D
:1052000000904FF400600390694606A8FDF788FD02
:1052100007B000BD646174615F636F6C6C6563743B
:10522000696F6E5F7461736B00000000E1520008EB
:1052300000B587B00120ADF8040006A004900A482C
:1052400000904FF480600390694606A8FDF768FD62
:1052500007B000BD646174615F7265706F72745FE6
:105260007461736B00000000F553000800B587B04F
:105270000020ADF8040006A00490084800904FF408
:105280008050039069460648FDF74AFD07B000BD0F
:105290006D61696E5F7461736B0000009155000869
:1052A0000004002000B587B00020ADF8040006A07F
:1052B0000490094800904FF48050039069460748D5
:1052C000FDF72EFD07B000BD61745F726563765F08
:1052D0007461736B00000000D9480008800600204C
:1052E000F8B51F4C01204FF47A752070FDF730FFA0
:1052F00010231CA202211E20FEF782F910271BA0FA
:10530000FEF730FD00F09CFAC1B2617020A0FEF7FC
:1053100029FD2948FBF7BCFE32212748FBF766FE32
:105320002548FBF771FD06B2314624A0FEF71AFDB1
:1053300003233246022148200097FEF729F932461E
:105340002BA1A01CFEF736FD2A4629A1A01DFEF7C1
:1053500031FD2846FDF7CEFD0028D0D0F8BD000075
:105360001E1D0020536D6F6B653A00005468697311
:1053700020697320646174615F636F6C6C65637432
:10538000696F6E5F7461736B20210D0A000000006D
:105390000D0A2B2B2B2B2B2B2B2B2B2B2B2B2B2B9C
:1053A0002B2B2B2B2B2B2B2B435351206973202082
:1053B00025640D0A00000000E40600200D0A2A2AD8
:1053C0002A2A2A2A2A2A2A2A2A2A2A2A2A2A2A2A3D
:1053D0002A2A2A2A2A2A2A2A2A2A2A2A4D513220E5
:1053E00056616C7565206973202025640D0A0000E4
:1053F0002534640010B54FF47A740A21074800F090
:10540000AFF8002801DB06A000E00BA0FEF7AAFC25
:105410002046FDF76FFD0028EFD010BD1E1D0020B7
:105420006F6365616E5F73656E645F646174612054
:105430004F4B210A000000006F6365616E5F73656A
:105440006E645F64617461204661696C210A0000CA
:10545000074908600748016841F08071016006480B
:1054600000214160016841F00101016070470000C6
:1054700020040020FCED00E0001000E013B54FF622
:10548000FF73012269460248FCF786FD00981CBDA7
:105490004C070020F0B589B014460E46074600259B
:1054A00024221C496846FAF786FE1B48416C684670
:1054B000884700F059FA4FF4FA60FDF71BFD44B13C
:1054C000207A20B1D4E9001000F008FB01E000F0E0
:1054D000E7FB00F009FA0446014610A0FEF742FC83
:1054E000002CF6D100F0E4F9044600F00DF9641C3C
:1054F0000BD000F01BFA401C01D000F017FA314627
:10550000384600F039FB09B0F0BD6D1C782DE9DBA1
:10551000F5E70000D07D00088006002063616C6C18
:10552000206E625F68775F6465746563742C726572
:10553000742069732025640A0000000030B418B19B
:10554000002901DD272903DB30BC4FF0FF30704715
:10555000024C646DA44630BC604700008006002009
:1055600008B1002902DC4FF0FF30704700F010BA9C
:1055700010B5FCF769FDFCF7A1FE10B9FFF776FE48
:1055800008B1012010BDFDF7ADFB002010BD0000EB
:1055900010B501F0D5FE17A0FEF7E4FB23A0FEF73F
:1055A000E1FB2BA0FEF7DEFB002238A139A0FFF7BC
:1055B00071FF10A0FEF7D6FB3AA0FEF7D3FB24A0A4
:1055C000FEF7D0FB414B424A062142A0FFF7B6FF4F
:1055D00040F6B830FDF78EFC06A0FEF7C3FB3FA0F7
:1055E000FEF7C0FB1AA0FEF7BDFBBDE8104000F0BF
:1055F00093B900000D0A3D3D3D3D3D3D3D3D3D3DE6
:105600003D3D3D3D3D3D3D3D3D3D3D3D3D3D3D3DCA
:105610003D3D3D3D3D3D3D3D3D3D3D3D3D3D3D3DBA
:105620003D3D3D3D3D3D3D3D3D3D3D000D0A53541D
:105630004550313A20496E6974204E42204D6F64C6
:10564000756C6528204E4220496E6974202900003F
:105650000D0A3D3D3D3D3D3D3D3D3D3D3D3D3D3DDD
:105660003D3D3D3D3D3D3D3D3D3D3D3D3D3D3D3D6A
:105670003D3D3D3D3D3D3D3D3D3D3D3D3D3D3D3D5A
:105680003D3D3D3D3D3D3D0D0A0000003536383382
:10569000000000003133392E3135392E3134302EAF
:1056A000333400000D0A53544550323A2052656796
:1056B000697374657220436F6D6D616E6428204E4E
:1056C00042204E6F74696679202900007933000802
:1056D0003D5700082B4E4E4D493A00000D0A5354D9
:1056E0004550333A205265706F7274204461746182
:1056F00020746F2053657276657228204E422052C6
:1057000065706F727420290038B507A42046FAF737
:1057100088FD0146002000900548002305A2856C05
:105720002046A84738BD000041542B4353510D007B
:10573000800600202B4353513A00000030B5ADF2F3
:10574000344D00200C46CDF82C0415464FF48561ED
:1057500001A8FAF749FD0CB1002D0CDCFEF7CAFEDA
:1057600001462E231E4A1FA0FEF7FCFA4FF0FF3021
:105770000DF2344D30BD01AB0DF22C4221A120467B
:10578000FAF764FD1E212348FAF72EFDDDF82C04FC
:10579000002804DD42001F4901A8FCF781FCFEF748
:1057A000A9FE01461B48009037230D4A1AA0FEF7B8
:1057B000D9FA20A11748FAF73BFD1F4C20B9012266
:1057C00020212046FBF78FFD1CA11248FAF730FD7F
:1057D00020B9002220212046FBF785FD0020C7E7E5
:1057E000F47D00085B256C755D5B25733A25645D6F
:1057F0005B495D706172616D20696E7661696C658F
:1058000064210A000D0A2B4E4E4D493A25642C2581
:10581000730D0A00001D00205B256C755D5B257310
:105820003A25645D5B495D636D642069733A257355
:105830000A0A00004F4E0000000400484F46460090
:105840003EB50020019011A44FF480611148FAF791
:10585000CBFC2046FAF7E5FC014602A800900E4872
:105860000C4B0EA2856C2046A8474FF0FF34002851
:105870000ADB0AA10748FAF7C2FC28B101AA09A16C
:10588000FAF7E4FC01983EBD20463EBD41542B434F
:1058900053510D00AC130020800600202B435351C0
:1058A0003A0000002B4353513A25642C393900004B
:1058B00038B507A42046FAF7B4FC01460020009052
:1058C0000648002306A2856C2046A84738BD000084
:1058D00041542B43474154543F0D000080060020A3
:1058E00043474154543A310038B5002000900448F1
:1058F000002304A2846C092104A0A04738BD000045
:10590000800600202B4346554E3A310041542B432C
:1059100046554E3F0D00000010B5FFF769FC00280A
:1059200003D1BDE81040FFF783BC10BD38B507A414
:105930002046FAF776FC0146002000900648002336
:1059400006A2856C2046A84738BD000041542B4371
:105950004750414444520D00800600202B434750DD
:10596000414444523A302C0038B50020009004489D
:10597000002304A2846C072103A0A04738BD0000C7
:10598000800600204F4B000041542B4E52420D0028
:105990002DE9F04786B00C46070032A50FF2D00A79
:1059A0004FF000064FF0FF39039602D0B4F5007FA8
:1059B00009DDFEF79FFD014640F239132F4A30A062
:1059C000FEF7D0F946E04FF4806841463548FAF7D3
:1059D0000BFC41463448FAF707FC324A2146384668
:1059E00001F090FC41463148FAF7FEFB0D202D49AD
:1059F0000094CDE901102B462DA241462A48FEF71E
:105A0000C1F92948FAF70DFC2C4C00960146A56C0B
:105A100000232BA22448A84700281BDB5046FAF796
:105A200000FC014604A80090A46C204B25A250461F
:105A3000A04704000ED423A11C48FAF7E0FB48B1AC
:105A4000194B03AA21A1FAF701FC234903984A68DC
:105A5000904203D1484606B0BDE8F0874860204632
:105A6000F9E7000041542B4E4D47533D0000000024
:105A700041542B4E514D47530D0000008A7C0008C5
:105A80005B256C755D5B25733A25645D5B495D70D4
:105A900061796C6F616420746F6F206C6F6E670A40
:105AA00000000000C40E0020AC170020AC13002042
:105AB000257325642C2573256300000080060020D3
:105AC0004F4B000053454E543D00000053454E548B
:105AD0003D25642C25730000780600202DE9FC414B
